:020000040000fa
:080000000002040000000000f2
:020000040000fa
:04000800ee04000002
:020000040000fa
:04000c00ee040000fe
:020000040000fa
:04001000ee040000fa
:020000040000fa
:04001400ee040000f6
:020000040000fa
:04001800ee040000f2
:020000040000fa
:04001c00ee040000ee
:020000040000fa
:04002000ee040000ea
:020000040000fa
:04002400ee040000e6
:020000040000fa
:04002800ee040000e2
:020000040000fa
:04002c00bc04000010
:020000040000fa
:04003000ee040000da
:020000040000fa
:04003400fa020000cc
:020000040000fa
:04003800ee040000d2
:020000040000fa
:04003c00ee040000ce
:020000040000fa
:04004000ee040000ca
:020000040000fa
:04004400ee040000c6
:020000040000fa
:04004800ee040000c2
:020000040000fa
:04004c00ee040000be
:020000040000fa
:04005000ee040000ba
:020000040000fa
:04005400ee040000b6
:020000040000fa
:04005800ee040000b2
:020000040000fa
:04005c00ee040000ae
:020000040000fa
:04006000ee040000aa
:020000040000fa
:04006400ee040000a6
:020000040000fa
:04006800ee040000a2
:020000040000fa
:04006c00ee0400009e
:020000040000fa
:04007000ee0400009a
:020000040000fa
:04007400ee04000096
:020000040000fa
:04007800ee04000092
:020000040000fa
:04007c00ee0400008e
:020000040000fa
:04008000ee0400008a
:020000040000fa
:04008400ee04000086
:020000040000fa
:04008800ee04000082
:020000040000fa
:04008c00ee0400007e
:020000040000fa
:04009000ee0400007a
:020000040000fa
:04009400ee04000076
:020000040000fa
:04009800ee04000072
:020000040000fa
:04009c00ee0400006e
:020000040000fa
:0400a000ee0400006a
:020000040000fa
:0400a400ee04000066
:020000040000fa
:0400a800ee04000062
:020000040000fa
:0400ac00ee0400005e
:020000040000fa
:0400b000ee0400005a
:020000040000fa
:0400b4004a040000fa
:020000040000fa
:0400b800ee04000052
:020000040000fa
:0400bc00ee0400004e
:020000040000fa
:0400c000ee0400004a
:020000040000fa
:0400c400ee04000046
:020000040000fa
:0400c800ee04000042
:020000040000fa
:0400cc00ee0400003e
:020000040000fa
:0400d000ee0400003a
:020000040000fa
:0400d400ee04000036
:020000040000fa
:0400d800ee04000032
:020000040000fa
:0400dc00ee0400002e
:020000040000fa
:0400e000ee0400002a
:020000040000fa
:0400e400ee04000026
:020000040000fa
:0400e800ee04000022
:020000040000fa
:0400ec00ee0400001e
:020000040000fa
:0400f000ee0400001a
:020000040000fa
:0400f400ee04000016
:020000040000fa
:0400f800ee04000012
:020000040000fa
:0400fc00ee0400000e
:020000040000fa
:04010000ee04000009
:020000040000fa
:04010400ee04000005
:020000040000fa
:04010800ee04000001
:020000040000fa
:04010c00ee040000fd
:020000040000fa
:04011000ee040000f9
:020000040000fa
:04011400ee040000f5
:020000040000fa
:04011800ee040000f1
:020000040000fa
:04011c00ee040000ed
:020000040000fa
:04012000ee040000e9
:020000040000fa
:04012400ee040000e5
:020000040000fa
:04012800ee040000e1
:020000040000fa
:04012c00ee040000dd
:020000040000fa
:04013000ee040000d9
:020000040000fa
:04013400ee040000d5
:020000040000fa
:04013800ee040000d1
:020000040000fa
:04013c00ee040000cd
:020000040000fa
:04014000ee040000c9
:020000040000fa
:04014400ee040000c5
:020000040000fa
:04014800ee040000c1
:020000040000fa
:04014c00ee040000bd
:020000040000fa
:04015000ee040000b9
:020000040000fa
:04015400ee040000b5
:020000040000fa
:04015800ee040000b1
:020000040000fa
:04015c00ee040000ad
:020000040000fa
:04016000ee040000a9
:020000040000fa
:04016400ee040000a5
:020000040000fa
:04016800ee040000a1
:020000040000fa
:04016c00ee0400009d
:020000040000fa
:04017000ee04000099
:020000040000fa
:04017400ee04000095
:020000040000fa
:04017800ee04000091
:020000040000fa
:04017c00ee0400008d
:020000040000fa
:04018000ee04000089
:020000040000fa
:04018400ee04000085
:020000040000fa
:04018800ee04000081
:020000040000fa
:04018c00ee0400007d
:020000040000fa
:04019000ee04000079
:020000040000fa
:04019400ee04000075
:020000040000fa
:04019800ee04000071
:020000040000fa
:04019c00ee0400006d
:020000040000fa
:0401a000ee04000069
:020000040000fa
:0401a400ee04000065
:020000040000fa
:0401a800ee04000061
:020000040000fa
:0401ac00ee0400005d
:020000040000fa
:0401b000ee04000059
:020000040000fa
:0401b400ee04000055
:020000040000fa
:0401b800ee04000051
:020000040000fa
:0401bc00ee0400004d
:020000040000fa
:0401c000ee04000049
:020000040000fa
:0401c400ee04000045
:020000040000fa
:0401c800ee04000041
:020000040000fa
:0401cc00ee0400003d
:020000040000fa
:0401d000ee04000039
:020000040000fa
:0401d400ee04000035
:020000040000fa
:0401d800ee04000031
:020000040000fa
:0401dc00ee0400002d
:020000040000fa
:0401e000ee04000029
:020000040000fa
:0401e400ee04000025
:020000040000fa
:0401e800ee04000021
:020000040000fa
:0401ec00ee0400001d
:020000040000fa
:0401f000ee04000019
:020000040000fa
:0401f400ee04000015
:020000040000fa
:0401f800ee04000011
:020000040000fa
:0401fc00ee0400000d
:020000040000fa
:04020000ee04000008
:020000040000fa
:04020400ee04000004
:020000040000fa
:04020800ee04000000
:020000040000fa
:04020c00ee040000fc
:020000040000fa
:04021000ee040000f8
:020000040000fa
:04021400ee040000f4
:020000040000fa
:04021800ee040000f0
:020000040000fa
:04021c00ee040000ec
:020000040000fa
:04022000ee040000e8
:020000040000fa
:04022400ee040000e4
:020000040000fa
:04022800ee040000e0
:020000040000fa
:04022c00ee040000dc
:020000040000fa
:04023000ee040000d8
:020000040000fa
:04023400ee040000d4
:020000040000fa
:04023800ee040000d0
:020000040000fa
:04023c00ee040000cc
:020000040000fa
:04024000ee040000c8
:020000040000fa
:04024400ee040000c4
:020000040000fa
:04024800ee040000c0
:020000040000fa
:04024c00ee040000bc
:020000040000fa
:04025000ee040000b8
:020000040000fa
:04025400ee040000b4
:020000040000fa
:04025800ee040000b0
:020000040000fa
:04025c00ee040000ac
:020000040000fa
:04026000ee040000a8
:020000040000fa
:04026400ee040000a4
:020000040000fa
:04026800ee040000a0
:020000040000fa
:04026c00ee0400009c
:020000040000fa
:04027000ee04000098
:020000040000fa
:04027400ee04000094
:020000040000fa
:04027800ee04000090
:020000040000fa
:04027c00ee0400008c
:020000040000fa
:04028000ee04000088
:020000040000fa
:100400000f2021000eff21000e01880000000000d7
:10041000000020000000e000020032000001200087
:1004200020028800140007006e0107000000e000b1
:1004300003003a00a025210001002000020037003f
:100440000000200001002000810f70000100320038
:100450000f000700000020000000e0000200320052
:100460000000020000000000260f02000000000053
:100470000040da000000fe00200020000000e00044
:1004800002003200100020009001880000000600e9
:10049000a1028800800478000000eb001f003700f4
:1004a000e284440054a0b4009905ba00e2844400f8
:1004b00054a0b4009906ba00e284440054a0b400e9
:1004c0000006eb00476fde00fd07b200ae018800ba
:1004d000636ce10003003a000ad801000000eb0061
:1004e0000e003700606ce10008003a00004deb00a0
:1004f0000a05e800020039003420ec000af0a000f0
:100500008b05e900f9ff3e00040037006168e10057
:10051000010032000086eb000b00070019c7ba008b
:100520000e04e0001905ba0003003a000a00e000da
:10053000dbff3a0000000600fe07b200ae028800b2
:100540008a047800f5ff37000cd0a300e20f4d00bd
:100550001c00390089027800354dba000a05e80010
:10056000020039003420ec000af0a0008b05e900fd
:100570000f003200254dba000a05e80002003900dc
:100580003420ec000af0a0008b05e90008003200de
:100590000c00e0000600320015cdba000a05e800a4
:1005a000020039003420ec000af0a0008b05e900bd
:1005b0008984e80054a0b4000b00e000e2ff3a0098
:1005c000000006009902ba00055d78008b05e9007d
:1005d000f7ff3200c82ade00055d78008b05e900d0
:1005e000f3ff32000c00e000f1ff320019ddba0029
:1005f000eeff37003600f800809fbe00829fbe00ed
:10060000849fbe00869fbe000000fa0050818000db
:100610006181800061004000e080480050818800d6
:100620006181880050818000618180004206200045
:100630000300200053010700e00f5000e08f580036
:100640000c003a001000200080818800408080006b
:100650000000e8004080880040808000ea0f5000e1
:100660000300360010c0b3000ef0b70001003700e1
:100670000e70ef0030808000e10f50000600360061
:1006800030808000e60f500003003e001000200084
:1006900080808800010037001030ef0090808000db
:1006a000e10f500018003a00a08180000000e9002e
:1006b000a0818800a08180000000e00003003d00d0
:1006c0002000200090808800540037003080800097
:1006d000e10f50005100360030808000e60f5000de
:1006e0004e003e0020002000a0808800b0808000e6
:1006f0008000e800f00f200000806000b0808800db
:100700001230ef004500370090808000e20f50006b
:1007100026003a00148ea800156ea90015aea80098
:10072000908180000000e900908188009081800025
:100730000000e00039003d009170800000002400be
:10074000008060000000e00008003a00156ea9007b
:1007500015aea900148ea90040062000a0818800d3
:1007600030002000908088002c00370091818000ac
:1007700080c72e00808f500028003d00156ea90014
:1007800015aea900148ea90040002000a0808800aa
:10079000b08080008000e800f00f20000080600042
:1007a000b08088001230ef001c003700908080007d
:1007b000e30f500019003a00a08180000000e9001a
:1007c000a0818800a08180000000e00008003d00ba
:1007d0001430ef00b08080008000e800f00f2000af
:1007e00000806000b08088001230ef000b003700fe
:1007f00030808000e80f50000800360030002000f4
:10080000a0808800b08080008000e800f00f200009
:1008100000806000b08088001230ef0050818000be
:1008200061818000820c200003002000d5000700b9
:10083000e00f5000e08f58000e003a00a0708000da
:100840000000d100614060000004a200614060002f
:100850000080fb006100600000004000a27080008a
:10086000d1ff2f008100610001007000a07088009e
:10087000780607000068a9000080fa004f03be0058
:100880004f02be004f01be004f00be003600f9000f
:10089000004006003600f800809fbe00829fbe0028
:1008a000849fbe00869fbe000000fa0040208000aa
:1008b00000407800f043b2001bf0b7008001210037
:1008c000ed010700e2808000f3808000b0818000ad
:1008d0000012b000cf80de00800f5100818f5900e0
:1008e00014003a0020d0bf000004e00011003a00dc
:1008f000908080000000e00007003a0040062000e1
:10090000a0818800803e2000908188001000200097
:10091000908088000700370010002000a080880029
:10092000b08080008000e800f00f200000806000b0
:10093000b08088000121800000f02f00008060005e
:100940000000e00005003a00102180000000e000f7
:1009500002003a000a24a9000468a9000080fa00f5
:100960004f03be004f02be004f01be004f00be004d
:100970003600f90000400600809fbe000200fa0029
:10098000210a8000010f7800508080000000e800fc
:100990005080880070818000e10f500004003a0010
:1009a0002e30ef009e00780001808800070037009d
:1009b0001000200070818800100020002080880036
:1009c0009e007800118088000a30ef000028a900fe
:1009d0000080fa004f00be00004006000040da0030
:1009e0000000fe00000005000001be001c00070022
:1009f0000470a70003f0a10003f8a30013003a005d
:100a00006509b10010003200090035006928e100d5
:100a10000200350001002800000005000000400031
:100a2000818048008502e900fcff3a0000000600d2
:100a3000f88f4200050035008100d1000080d3000e
:100a40008502e800fcff3a00000006008000eb0091
:100a5000000005004f89de00820178004c0037005d
:100a6000c70ade00f107b200f50fb200080032003d
:100a7000e1cf4200020032000170a0002400050016
:100a8000810f7000010032000408050044000500d9
:100a9000810f700002003a00140005008502e90091
:100aa0000000400081c04800fcff3b000170a00036
:100ab00024000500889fbe008a9fbe008c1f78001e
:100ac000980007009f00330003866c006450e1002b
:100ad000240032006420e100270032006150e10070
:100ae000220032006120e100210032008b854200ab
:100af000eb07b1000134b800003ab8000804420026
:100b000089844a00013ab8000030b800888040006b
:100b100009014a00040033000000400081804800c1
:100b2000020149008b05e900c909dd00830170005d
:100b30000100320013002000c814de004814dd005c
:100b40004709de001200b200c808de000884700009
:100b50004e00070001f0a1000cf0a70001f0a0007a
:100b6000810037006120e100830032000801be00ef
:100b70000200be00f7ff37006150e100fcff3a00c1
:100b80007d0037007f0007000400be000000060063
:100b9000881f7800030478000300e00007003d0090
:100ba00060001000e080180060011900e081190069
:100bb00002003b0001f02d00030037000400070095
:100bc00008f0a70001f0a0004f0478000000060024
:100bd000889fbe008a9fbe000082700004027100e0
:100be00004827100260032000004be000200be0034
:100bf0006011b8006b092000950220000182cf002f
:100c00000a0039000541b1000082cf000700390019
:100c10000541b1000982cf00040039000541b1004f
:100c20000882cf00010039000541b10005425200a1
:100c3000120032000a003b008281710061016400f1
:100c40008100d1000080d3008984d3000884d300c0
:100c50008b05e8000442e800f7ff3a000700370080
:100c60000804440089844c0000004800818048004a
:100c70008b05e9000442e900f9ff3a000300070090
:100c80004f05be004f04be0000000600810020009a
:100c9000618055000b003d000b00200061fe2f001d
:100ca0000100e1001d0034008281710061016400d7
:100cb0008904d1000884d3000000e800faff3a005c
:100cc00071002000610064000300700002006000f9
:100cd0000900320061044400e0844c000988a5004a
:100ce000050032008b05e8006808e10002003a00c8
:100cf0008904d1000884d300f20f20000258e100db
:100d000005003d00c75ddd00f907b2008980750070
:100d100008007800000006000bf827008b00780020
:100d2000000005000004be004dff07000003be00e8
:100d30000405be000200be0049ff0700844f750095
:100d4000000006000200be006450e100050036000d
:100d50006420e100020036000968a30001003a00a7
:100d60000800be000160a0004f0678004f05be00dd
:100d70004f04be0000000600f0ff2f00f1ff270027
:100d8000f9ff37006022b800060220000000d00002
:100d90008180d2000482d2008582d2000000a000af
:100da0000202520083825a00030031000202420014
:100db00083824a000000a1000603e900f3ff3a0025
:040dc0000000060029
:020000040000fa
:100dc4000000fa00104ea800106ea900a1368000a1
:100dd40000f82f00808060002002200001007000d5
:100de400a036880001348000f00f2c008080600061
:100df40000e0200001007000003488000120800021
:100e0400f08f2f000080600000a0a0000020880068
:100e14000000000001208000000e2000808060009f
:100e240000082000808f5000faff3a000164a900f6
:100e34008120800000fc2f0000806000802088005a
:100e440081208000000c20000100700080208800b8
:100e54009120800080032000010070009020880011
:100e640012e4a80091208000f08f2f0080806000a1
:100e74000050200001007000902088009120800024
:100e840080ff2f00008060000020a00090208800d8
:100e940012c4a8003120800000fe2f0000806000f2
:100ea4000030a0003020880031208000f0ff2100b5
:100eb4000080600000f0a000302088000004a8003a
:100ec4001424ef000004a900f2ff2f000300200007
:100ed4000000eb0077020700b08180000012b00030
:100ee4006101b9000002eb00f10f20000000eb00eb
:100ef4000102070001208000f08f2f0000806000b5
:100f0400002088000000000001208000000e200066
:100f1400008060000000e000fbff3a002024ef00a6
:100f24000a24a9002a24ef005021800040218800cf
:100f340040218000102188001021800000218800b9
:100f440030e4a80031e4a80032e4a80033e4a800a7
:100f540034e4a80035e4a80036e4a80037e4a80087
:100f6400802180003000b30080218800812180002e
:100f74000030200001007000802188009021800052
:100f84003000b300902188009121800000302000bf
:100f94000100700090218800a02180003000b3007f
:100fa400a0218800a12180000030200001007000f1
:100fb400a0218800b02180003000b300b021880057
:100fc400b12180000030200001007000b0218800b1
:100fd4000c24a80081428000f0ff2800808060007b
:100fe4000000260001007000804288002468a800e8
:100ff4000080fa00000006000000fa00040222004b
:101004000458880024442000645888007400200098
:1010140074588800640420001458880002102100c9
:10102400030020000201780022588800062bef00fc
:1010340001eba800020220000259880002442000ab
:101044006259880072002000725988002202200030
:1010540012598800001021000100200000007800cf
:1010640020598800262bef0021eba8000080fa000d
:10107400000006001200fa00889fbe008a9fbe008e
:101084008c9fbe00000f78001e0078003040900056
:101094000080fb004400dd006100b80000f0a70000
:1010a4001100200002102100030020000002d000e3
:1010b4008202d000050042004220a800838048003c
:1010c4004200a9004220ae004200a8000080d300e4
:1010d4009301800001017800920188000000000063
:1010e4000000780090007800930188000000000060
:1010f400c0ff2100008060004200de006101b800f2
:101104001e00780022009800330098001e0078002a
:10111400304090000080fb004400dd00640040008b
:101124006100b80000f0a7001100200004102100a5
:10113400050020000001d0008401d000030041001c
:101144004220a800858048004200a9004220ae0049
:101154004200a8000080d3009301800001017800c0
:101164009201880000000000000078001000780060
:10117400930188000000000000407800ef40600008
:101184001e007800015098001e0078003040900046
:101194000080fb004400dd006c0040006100b800ea
:1011a40000f0a70011002000061021000700200015
:1011b4000002d0008602d000050042004220a800b0
:1011c400878048004200a9004220ae004200a800e7
:1011d4000080d3009301800001017800920188000f
:1011e40000000000000078001000780093018800df
:1011f400000000004800de00804078001e007800f7
:10120400714898001e007800304090000080fb0078
:101214004400dd006c0040006100b80000f0a7004d
:101224001100200008102100090020000001d00056
:101234008801d000030041004220a80089804800b2
:101244004200a9004220ae004200a8000080d30062
:1012540093018000010178009201880000000000e1
:10126400000078001000780093018800000000005e
:10127400804078001e007800614898001e007800c5
:10128400304090000080fb004400dd006a00400014
:101294006100b80000f0a700110020000410210034
:1012a4001407980005002000250798001e019000ef
:1012b400ae0190000002d0008202d000050042007e
:1012c4004220a800838048004200a9004220ae00ca
:1012d4004200a8000080d3009201800081017800c0
:1012e40093018800000000000000780010007800de
:1012f40092018800000000004800de008040780071
:101304001e007800514898001e007800304090007c
:101314000080fb004400dd006a0040006100b8006a
:1013240000f0a700110020000210210032079800ed
:1013340003002000430798003e029000ce02900074
:101344000001d0008401d000030041004220a80025
:10135400858048004200a9004220ae004200a80057
:101364000080d300920180008101780093018800fd
:10137400000000000000780010007800920188004e
:1013840000000000804078001e007800414898006a
:101394001e007800304090000080fb004400dd0017
:1013a400680040006100b80000f0a70011002000b0
:1013b40004102100540798000500200065079800d8
:1013c4005e019000ee0190000002d0008202d00085
:1013d400050042004220a800838048004200a90082
:1013e4004220ae004200a8000080d3009201800099
:1013f400810178009301880000000000000078005b
:101404001000780092018800000000004800de000f
:10141400804078001e007800314898001e00780053
:10142400304090000080fb004400dd006800400074
:101434006100b80000f0a700110020000210210094
:101444007207980003002000030f98007e029000aa
:101454008e0a90000001d0008401d00003004100f6
:101464004220a800858048004200a9004220ae0026
:101474004200a8000080d30092018000810178001e
:10148400930188000000000000007800100078003c
:101494009201880000000000804078001e0078005f
:1014a400214898001e007800304090000080fb0026
:1014b4004400dd00660040006100b80000f0a700b1
:1014c400110020000c1021000d0020000002d000ab
:1014d4008c02d000050042004220a8008d80480004
:1014e4004200a9004220ae004200a8000080d300c0
:1014f40092018000810178009301880000000000bf
:1015040000007800100078009201880000000000bc
:101514004800de00804078001e00780011489800e2
:101524001e007800304090000080fb004400dd0085
:10153400660040006100b80000f0a7001100200020
:101544000a1021000b0020000001d0008a01d00005
:10155400030041004220a8008b8048004200a900fb
:101564004220ae004200a8000080d3009201800017
:1015740081017800930188000000000000007800d9
:10158400100078009201880000000000804078007c
:101594001e007800014898001e007800304090003a
:1015a400050007004f06be004f05be004f04be00f5
:1015b4000080fa00000006000200fa00004f7800e4
:1015c4001e80fb006101b90080ff2f00f1ff2f0096
:1015d4000200400083804800f20020000300200045
:1015e400820f5000838f580041003e000006010026
:1015f4000f003700110037001300370015003700c3
:1016040017003700190037001b0037001d00370092
:101614001f00370021003700230037002500370062
:1016240027003700290037002b0037002d00370032
:101634002104a9002904a9002d0037002124a900b0
:101644002924a9002a0037002144a9002944a9001b
:10165400270037002164a9002964a9002400370069
:101664002184a9002984a9002100370021a4a9000c
:1016740029a4a9001e00370021c4a90029c4a90077
:101684001b00370021e4a90029e4a9001800370051
:101694002204a9002a04a900150037002224a90065
:1016a4002a24a900120037002244a9002a44a900d0
:1016b4000f0037002264a9002a64a9000c00370037
:1016c4002284a9002a84a9000900370022a4a900c1
:1016d4002aa4a9000600370022c4a9002ac4a9002c
:1016e4000300370022e4a9002ae4a9000000000056
:1016f4000080fa00000006001600fa006007980057
:1017040072079800030f9800110f9800240f980097
:101714006000b800008fbe000004a8006e009000b6
:1017240000004000000040008000780000442000d9
:1017340000804000200798006e0090004280de0088
:10174400000040008000780000422000008040003b
:10175400300798006e0090004380de0000004000d7
:1017640080007800804120000080400040079800fd
:1017740040412000500798007e0190008e0990009f
:10178400f07f20000100200002027800830178002d
:10179400000178000100780002016200008061000d
:1017a4008000eb00c000dd0000002000008fbe00c0
:1017b4006110b8001e1f70001e9770001e00780094
:1017c400c500dd002e009000010878002e00900076
:1017d4000080e8008000eb00010878003e009000e3
:1017e400900078006e009000630060004200dd000d
:1017f400f20020000010dd000080ea00808060001c
:101804003e009000010878006e00900063006000c4
:101814004200dd009e0890008008dd003e0090003c
:1018240010007800810070003e00900001087800ec
:101834004e009000900078006e00900067006000f9
:1018440000004000320020000010dd000080ea00ab
:10185400808060004e009000010878006e009000c7
:101864006700600000004000ae0890008008dd00c2
:101874004e00900010007800810070004e0090002f
:1018840001087800110020006e0090000008dd00bf
:10189400800078005e0090001000780081007000e5
:1018a4005e009000010878000004a9000080fa009e
:1018b400000006000c00fa00300798004207980068
:1018c400530798006000b800008fbe000004a80011
:1018d4003e009000000040000000400080007800be
:1018e4000043200000804000200798004e01900033
:1018f400de019000f07f2000010020000202780049
:101904008301780000017800010078000201620080
:10191400008061008000eb00c000dd0000002000ba
:10192400008fbe006110b8001e1f70001e9770006b
:101934001e007800c500dd002e009000010878002c
:101944002e0090000080e8008000eb000108780081
:101954000004a9000080fa00000006001a00fa0042
:10196400889fbe008a9fbe008c9fbe0040079800df
:10197400214f9800620798006e0090000000e80074
:10198400104078000080fb00c800dd006e0090006d
:10199400104078000080fb0001007000000f780008
:1019a4006e00900063004000104078000080fb004f
:1019b400c800dd006e0090000080e8001040780050
:1019c4000080fb0001007000100798006e0090007a
:1019d40065004000104078000080fb00c800dd0076
:1019e4006e00900064004000104078000080fb000e
:1019f40001007000200798006e009000670040000e
:101a0400104078000080fb00c800dd006e009000ec
:101a140066004000104078000080fb000100700068
:101a240030079800c2818000ce009000f07f200033
:101a3400008060004202dd004410dd006100b80057
:101a440000f0a7001100200006102100070020006c
:101a54000001d0008601d000030041004220a8000c
:101a6400878048004200a9004220ae004200a8003e
:101a74000080d300a30180000101780000007800f9
:101a8400a201880004087800a3018800c0818000b6
:101a94004400dd000080e8006100b80000f0a70009
:101aa4001100200008102100090020000002d000cd
:101ab4008802d000050042004220a8008980480026
:101ac4004200a9004220ae004200a8000080d300da
:101ad4008001eb00a2018000010278000000780080
:101ae400a401880003087800a2018800c081800056
:101af400ae4890008181fb004400dd00640040009a
:101b04006100b80000f0a7001100200006102100b9
:101b14007607980002002000020f98007e029000d1
:101b24008e0a90000003d0000401d000020043009c
:101b34004220a800858048004200a9004220ae004f
:101b44004200a8000080d300a201800001027800b6
:101b540000007800a401880003087800a20188002e
:101b6400c08180004400dd00660040006100b800d0
:101b740000f0a7001100200003102100130f9800ab
:101b840004002000240f98001e099000ae09900064
:101b94000002d0008202d000050042004220a800ca
:101ba400838048004200a9004220ae004200a80001
:101bb4000080d300a2018000810178000000780039
:101bc400a30188001e087800a2018800c08180005b
:101bd4004400dd00680040006100b80000f0a70088
:101be4001100200006102100360f9800020020008a
:101bf400420f98003e0a9000ce0a90000003d000e5
:101c04000401d000020043004220a800858048005f
:101c14004200a9004220ae004200a8000080d30088
:101c24009e019000a201800001027800000078006b
:101c3400a401880003087800a2018800c081800004
:101c44004400dd006a0040006100b80000f0a70015
:101c5400110020000c1021000d0020008001d00094
:101c64000c02d000048041004220a8008d8048006e
:101c74004200a9004220ae004200a8000080d30028
:101c8400ae019000a20180000102780000007800fb
:101c9400a401880003087800a2018800c0818000a4
:101ca4004400dd006c0040006100b80000f0a700b3
:101cb400110020000a1021000b0020008002d00037
:101cc4000a03d000068042004220a8008b8048000e
:101cd4004200a9004220ae004200a8000080d300c8
:101ce400be019000a201800001027800000078008b
:101cf400a401880003087800a2018800c081800044
:101d0400e30f500018003200e30f500007003c00be
:101d1400e10f500010003200e10f500010003c00b1
:101d24000000e0000a00320019003700e50f5000ff
:101d340011003200e50f50000d003500e60f500091
:101d44000f003200e70f50000f0032001000370080
:101d54003064a8000e0037003164a8000c0037007e
:101d64003264a8000a0037003364a8000800370072
:101d74003464a800060037003564a8000400370066
:101d84003664a800020037003764a8000000000091
:101d9400c08180008000e80070002800008060009e
:101da4000000e00004003d000000e90081ff2f0076
:101db400008070000000e800c08188004f06be006b
:101dc4004f05be004f04be000080fa00000006006c
:101dd4000000fa00113a8000f08f2f00808060002c
:101de4000030200001007000103a8800313a800071
:101df40000e02f00008060002001b300303a88002a
:101e0400213a8000f0f32f0000806000203a88001f
:101e1400213a800000fe2f00008060000000a00036
:101e2400203a880040a7a90000000000113a800071
:101e340000022000008060000000e000fbff320090
:101e44000080fa00000006000e00fa00e0ff070020
:101e54006000b8003007980041079800060037007a
:101e64003e009000ce00900061004000e0804800f9
:101e740030079800410798003e019000ce01900081
:101e8400f07b220091002000800f5100818f5900c7
:101e9400f3ff3400007c22009100200050079800da
:101ea40061079800000000005e009000ee009000c2
:101eb4000081700002f0a7000201ea000201ea00ba
:101ec4004f11de000241780061005000e0805800ac
:101ed40050079800610798000204e000f2ff3a00fe
:101ee400bbff07001e2eef00f070800070708800aa
:101ef400002ea800006ea800008ea8003630ef0067
:101f040010708000620060000000e0000a003a00e7
:101f140010708000680060000000e00006003a00d5
:101f240010708000700060000000e00002003a00c1
:101f34003630ef006b0037001070800062006000e4
:101f44000000e0000b0032001070800068006000a8
:101f54000000e00007003a0010708000700060008c
:101f64000000e00003003a0010002000b081880067
:101f74005c00370010708000620060000000e00028
:101f84000b003a0010708000680060000000e00060
:101f94000700320010708000700060000000e00054
:101fa40003003a0020002000b08188004d00370073
:101fb40010708000620060000000e0000b0032003e
:101fc40010708000680060000000e000070032002c
:101fd40010708000700060000000e00003003a0010
:101fe40030002000b08188003e003700107080006f
:101ff400620060000000e0000b003a0010708000f6
:10200400680060000000e00007003a0010708000e3
:10201400700060000000e000030032004000200077
:10202400b08188002f0037001070800062006000cb
:102034000000e0000b0032001070800068006000b7
:102044000000e00007003a0010708000700060009b
:102054000000e0000300320050002000b08188003e
:102064002000370010708000620060000000e00073
:102074000b003a0010708000680060000000e0006f
:102084000700320010708000700060000000e00063
:102094000300320060002000b08188001100370086
:1020a40010708000620060000000e0000b0032004d
:1020b40010708000680060000000e000070032003b
:1020c40010708000700060000000e0000300320027
:1020d40070002000b08188000200370080002000da
:1020e400b081880036fb0700c3fb0700b700070078
:1020f400cb000700800007008e000700808180006d
:10210400e20f50001c003200e20f500003003e00ba
:10211400e10f5000060032004b003700e30f50007f
:1021240019003200e40f50001f003200460037004f
:1021340010002000708188000430ef00154ea800c4
:102144000000eb00000f78000000eb00000f7800a7
:10215400010037001e0fe800100320009e007800e5
:10216400808f5000fbff3400154ea9003000200082
:102174008081880035003700154ea900300020000a
:10218400808188003100370020808000e10f5000fa
:1021940004003a000430ef000c30ef00400020004f
:1021a4008081880029003700508080000000e00012
:1021b40023003a000000eb00100798001180800013
:1021c40000808000808f5000050036001180800060
:1021d400008080000080500010079800060037003f
:1021e40061088000008080008080500010808000a2
:1021f40000804000100798001e009000cf80de0091
:1022040013fa07005296210023ce230028fa070070
:10221400f4f9070000007800200798002e009000d1
:102224003080880031808000f00f2000808f5000c3
:1022340002003600f00f2000308088000830ef00e4
:102244003030ef000100370000000000abff370022
:102254000800fa003080800000407800004f7800c9
:10226400907080004e00de00614060000080fb0042
:102274004300dd0080407800907080004f00de0055
:10228400004078000080fb004200dd000040780040
:1022940080c070000ed0bf000080fb000000400032
:1022a4000040780080c0700080808000004078008a
:1022b40000c0700010479800b08080000040780093
:1022c40020479800a08080000040780030479800a4
:1022d400908080000040780040479800b0818000e2
:1022e4000013b0000e01780051c0b3009bfd07003d
:1022f4000080fa00000006000000fa00002ea8008a
:10230400006ea800008ea80011cea80011eea8004f
:10231400114ea900118ea800108ea900116ea900fb
:1023240011aea900102ea900142ea8000080fa00f6
:10233400000006000000fa007135800000f82f004c
:1023440080806000c00220000100700070358800a9
:10235400010a800080ff2f00008060000000a000c0
:10236400000a88004301a900010a8000f0f92f0047
:1023740000806000000a8800010a8000f03f2e00ff
:102384000080600000a0a000000a880042e1a900cb
:10239400110a800000fe2f0000806000c000b3001e
:1023a400100a88000028a9002028a8000142800003
:1023b400f0f82f008080600000052000010070000c
:1023c400004288000080fa00000006000000fa00c5
:1023d4000421a90004c1a90021088000f0fc2f00f9
:1023e400008060000040a000200888000021ef0069
:1023f400703821001008880001428000f0ff280096
:102404000080600000e0a000004288000068a9008d
:102414002068a80005e1a8000080fa00000006007a
:102424000000fa001021a90010c1a9008108800051
:10243400f0fc2f00008060000050a000800888009d
:10244400005327006008880011e1a8000080fa000a
:10245400000006000200fa00000ea8000e0ea800fc
:102464002023ef002223ef00f00020002019880031
:102474003223ef002823ef002623ef002e23ef0062
:102484003023ef0021e3a8000000eb00000f7800e8
:10249400010037001e0fe80070bb20009e0078008a
:1024a400808f5000fbff34000080fa00000006001b
:020000040000fa
:1024b4000011000000010000800000000010000076
:1024c4002e000000800000002e1000000800000014
:1024d4008200000001000100003200000a00000038
:1024e400361000000400000080000000000000001e
:020000040000fa
:04afe000ceff0000a0
:020000040000fa
:04afe400ffff00006b
:020000040000fa
:04afe8007fff0000e7
:020000040000fa
:04afec0058ff00000a
:020000040000fa
:04aff0007bff0000e3
:00000001FF
