:020000040000fa
:080000000002040000000000f2
:020000040000fa
:04000800d40c000014
:020000040000fa
:04000c00d40c000010
:020000040000fa
:04001000d40c00000c
:020000040000fa
:04001400d40c000008
:020000040000fa
:04001800d40c000004
:020000040000fa
:04001c00d40c000000
:020000040000fa
:04002000d40c0000fc
:020000040000fa
:04002400d40c0000f8
:020000040000fa
:04002800d40c0000f4
:020000040000fa
:04002c00d40c0000f0
:020000040000fa
:04003000d40c0000ec
:020000040000fa
:04003400fa020000cc
:020000040000fa
:04003800d40c0000e4
:020000040000fa
:04003c00d40c0000e0
:020000040000fa
:04004000d40c0000dc
:020000040000fa
:04004400d40c0000d8
:020000040000fa
:04004800d40c0000d4
:020000040000fa
:04004c00d40c0000d0
:020000040000fa
:04005000d40c0000cc
:020000040000fa
:04005400d40c0000c8
:020000040000fa
:04005800d40c0000c4
:020000040000fa
:04005c00d40c0000c0
:020000040000fa
:04006000d40c0000bc
:020000040000fa
:04006400d40c0000b8
:020000040000fa
:04006800d40c0000b4
:020000040000fa
:04006c00d40c0000b0
:020000040000fa
:04007000d40c0000ac
:020000040000fa
:04007400500c00002c
:020000040000fa
:04007800d40c0000a4
:020000040000fa
:04007c00d40c0000a0
:020000040000fa
:04008000d40c00009c
:020000040000fa
:04008400d40c000098
:020000040000fa
:04008800d40c000094
:020000040000fa
:04008c00d40c000090
:020000040000fa
:04009000d40c00008c
:020000040000fa
:04009400d40c000088
:020000040000fa
:04009800d40c000084
:020000040000fa
:04009c00d40c000080
:020000040000fa
:0400a000d40c00007c
:020000040000fa
:0400a400d40c000078
:020000040000fa
:0400a800d40c000074
:020000040000fa
:0400ac00d40c000070
:020000040000fa
:0400b000d40c00006c
:020000040000fa
:0400b400ba07000087
:020000040000fa
:0400b800d40c000064
:020000040000fa
:0400bc00d40c000060
:020000040000fa
:0400c000d40c00005c
:020000040000fa
:0400c400d40c000058
:020000040000fa
:0400c800d40c000054
:020000040000fa
:0400cc00d40c000050
:020000040000fa
:0400d000d40c00004c
:020000040000fa
:0400d400d40c000048
:020000040000fa
:0400d800d40c000044
:020000040000fa
:0400dc00d40c000040
:020000040000fa
:0400e000d40c00003c
:020000040000fa
:0400e400d40c000038
:020000040000fa
:0400e800d40c000034
:020000040000fa
:0400ec00d40c000030
:020000040000fa
:0400f000d40c00002c
:020000040000fa
:0400f400d40c000028
:020000040000fa
:0400f800d40c000024
:020000040000fa
:0400fc00d40c000020
:020000040000fa
:04010000d40c00001b
:020000040000fa
:04010400d40c000017
:020000040000fa
:04010800d40c000013
:020000040000fa
:04010c00d40c00000f
:020000040000fa
:04011000d40c00000b
:020000040000fa
:04011400d40c000007
:020000040000fa
:04011800d40c000003
:020000040000fa
:04011c00d40c0000ff
:020000040000fa
:04012000d40c0000fb
:020000040000fa
:04012400d40c0000f7
:020000040000fa
:04012800d40c0000f3
:020000040000fa
:04012c00d40c0000ef
:020000040000fa
:04013000d40c0000eb
:020000040000fa
:04013400d40c0000e7
:020000040000fa
:04013800d40c0000e3
:020000040000fa
:04013c00d40c0000df
:020000040000fa
:04014000d40c0000db
:020000040000fa
:04014400d40c0000d7
:020000040000fa
:04014800d40c0000d3
:020000040000fa
:04014c00d40c0000cf
:020000040000fa
:04015000d40c0000cb
:020000040000fa
:04015400d40c0000c7
:020000040000fa
:04015800d40c0000c3
:020000040000fa
:04015c00d40c0000bf
:020000040000fa
:04016000d40c0000bb
:020000040000fa
:04016400d40c0000b7
:020000040000fa
:04016800d40c0000b3
:020000040000fa
:04016c00d40c0000af
:020000040000fa
:04017000d40c0000ab
:020000040000fa
:04017400d40c0000a7
:020000040000fa
:04017800d40c0000a3
:020000040000fa
:04017c00d40c00009f
:020000040000fa
:04018000d40c00009b
:020000040000fa
:04018400d40c000097
:020000040000fa
:04018800d40c000093
:020000040000fa
:04018c00d40c00008f
:020000040000fa
:04019000d40c00008b
:020000040000fa
:04019400d40c000087
:020000040000fa
:04019800d40c000083
:020000040000fa
:04019c00d40c00007f
:020000040000fa
:0401a000d40c00007b
:020000040000fa
:0401a400d40c000077
:020000040000fa
:0401a800d40c000073
:020000040000fa
:0401ac00d40c00006f
:020000040000fa
:0401b000d40c00006b
:020000040000fa
:0401b400d40c000067
:020000040000fa
:0401b800d40c000063
:020000040000fa
:0401bc00d40c00005f
:020000040000fa
:0401c000d40c00005b
:020000040000fa
:0401c400d40c000057
:020000040000fa
:0401c800d40c000053
:020000040000fa
:0401cc00d40c00004f
:020000040000fa
:0401d000d40c00004b
:020000040000fa
:0401d400d40c000047
:020000040000fa
:0401d800d40c000043
:020000040000fa
:0401dc00d40c00003f
:020000040000fa
:0401e000d40c00003b
:020000040000fa
:0401e400d40c000037
:020000040000fa
:0401e800d40c000033
:020000040000fa
:0401ec00d40c00002f
:020000040000fa
:0401f000d40c00002b
:020000040000fa
:0401f400d40c000027
:020000040000fa
:0401f800d40c000023
:020000040000fa
:0401fc00d40c00001f
:020000040000fa
:04020000d40c00001a
:020000040000fa
:04020400d40c000016
:020000040000fa
:04020800d40c000012
:020000040000fa
:04020c00d40c00000e
:020000040000fa
:04021000d40c00000a
:020000040000fa
:04021400d40c000006
:020000040000fa
:04021800d40c000002
:020000040000fa
:04021c00d40c0000fe
:020000040000fa
:04022000d40c0000fa
:020000040000fa
:04022400d40c0000f6
:020000040000fa
:04022800d40c0000f2
:020000040000fa
:04022c00d40c0000ee
:020000040000fa
:04023000d40c0000ea
:020000040000fa
:04023400d40c0000e6
:020000040000fa
:04023800d40c0000e2
:020000040000fa
:04023c00d40c0000de
:020000040000fa
:04024000d40c0000da
:020000040000fa
:04024400d40c0000d6
:020000040000fa
:04024800d40c0000d2
:020000040000fa
:04024c00d40c0000ce
:020000040000fa
:04025000d40c0000ca
:020000040000fa
:04025400d40c0000c6
:020000040000fa
:04025800d40c0000c2
:020000040000fa
:04025c00d40c0000be
:020000040000fa
:04026000d40c0000ba
:020000040000fa
:04026400d40c0000b6
:020000040000fa
:04026800d40c0000b2
:020000040000fa
:04026c00d40c0000ae
:020000040000fa
:04027000d40c0000aa
:020000040000fa
:04027400d40c0000a6
:020000040000fa
:04027800d40c0000a2
:020000040000fa
:04027c00d40c00009e
:020000040000fa
:04028000d40c00009a
:020000040000fa
:100400000f2021000eff21000e01880000000000d7
:10041000000020000000e000020032000001200087
:100420002002880014000700610507000000e000ba
:1004300003003a0040d221000100200002003700f2
:100440000000200001002000810f70000100320038
:100450000f000700000020000000e0000200320052
:100460000000020000000000761b020000000000f7
:100470000040da000000fe00200020000000e00044
:1004800002003200100020009001880000000600e9
:10049000a1028800800478000000eb001f003700f4
:1004a000e284440054a0b4009905ba00e2844400f8
:1004b00054a0b4009906ba00e284440054a0b400e9
:1004c0000006eb00476fde00fd07b200ae018800ba
:1004d000636ce10003003a000ad801000000eb0061
:1004e0000e003700606ce10008003a00004deb00a0
:1004f0000a05e800020039003420ec000af0a000f0
:100500008b05e900f9ff3e00040037006168e10057
:10051000010032000086eb000b00070019c7ba008b
:100520000e04e0001905ba0003003a000a00e000da
:10053000dbff3a0000000600fe07b200ae028800b2
:100540008a047800f5ff37000cd0a300e20f4d00bd
:100550001c00390089027800354dba000a05e80010
:10056000020039003420ec000af0a0008b05e900fd
:100570000f003200254dba000a05e80002003900dc
:100580003420ec000af0a0008b05e90008003200de
:100590000c00e0000600320015cdba000a05e800a4
:1005a000020039003420ec000af0a0008b05e900bd
:1005b0008984e80054a0b4000b00e000e2ff3a0098
:1005c000000006009902ba00055d78008b05e9007d
:1005d000f7ff3200c82ade00055d78008b05e900d0
:1005e000f3ff32000c00e000f1ff320019ddba0029
:1005f000eeff37003600f800809fbe00829fbe00ed
:10060000849fbe00869fbe00881f78001000fa00fd
:10061000108280002182800061004000e08048005c
:100620001082880021828800108280002182800050
:100630004201200003002000d4050700e00f500015
:10064000e08f5800ad003a00d2838000e383800041
:100650003082800041828000800f5100818f5900dc
:1006600004003a00508280000000e80050828800b8
:10067000010037004a30ef0022848000338480007c
:100680006082800071828000800f5100818f59004c
:1006900004003a00808280000000e8008082880028
:1006a000010037005030ef0050828000fe0f5000f4
:1006b0000300360010c0b3007ef0b7000100370021
:1006c0007e70ef0080828000fe0f50000300360035
:1006d00010c0b30088f0b700010037008870ef0049
:1006e000d0838000e18380003082880041828800ce
:1006f00020848000318480006082880071828800bc
:100700000000eb00000f78005b0037001e0078004f
:10071000800040002006210000804000100078008a
:10072000e10f500053003a001e0078000000e00086
:1007300006003a00d0838000e18380002b0507008b
:100740001007980021079800080037001e00780065
:10075000e10f500005003a002084800031848000c1
:10076000220507001007980021079800e1062100e4
:100770001e0078004200dd000080400090009000e4
:1007800010007800190507001e019000ae019000ce
:1007900089040700f4040700e30621001e01780025
:1007a0004211dd00028141000089be001e00780078
:1007b00080004000a006210000804000100078006a
:1007c0008000e8001e00780000014000a006210023
:1007d00000004100010878001e0078008000400001
:1007e000a006210000804000900078001e007800e4
:1007f0000001400060062100000041001000780068
:10080000808f50001b003500e10621001e0078009b
:100810004200dd000080400010027800900290004d
:100820001e0078008000400060062100008040002b
:1008300010007800cf80de000001be000400be0082
:10084000ba04070030079800410798003e01900065
:10085000ce0190001e0078000d0b07001e007800ee
:100860008000400020062100008040008000eb0056
:10087000010878001e0fe8001e007800e10f50000c
:10088000a2ff3400d2838000e3838000a005210012
:100890009000900010007800000251008182590001
:1008a0006009210090009000100078000001be0057
:1008b0000400be009d04070000007800b08388009b
:1008c0002284800033848000a0052100b0009000c5
:1008d000200090000002510081825900600921002f
:1008e000b0009000200090000001be000400be0097
:1008f0008e04070000007800008488005084800087
:10090000e10f500003003a00b0838000108188009e
:100910001500370050848000e20f500008003a00b4
:10092000b18380000084800000804000cf00de00a2
:10093000008040000080d100108188000a0037004c
:1009400050848000e40f500007003a00b18380001b
:100950000084800000804000cf00de000080400066
:100960000080d100108188000000eb005007980043
:1009700000808000e10f50000c003a00508480009d
:10098000e10f500002003a00156ea9000400370084
:1009900050848000e20f500001003a00154ea9007b
:1009a00020002000008088002e0137000080800099
:1009b000e20f500005003a000430ef000630ef006f
:1009c0003000200000808800260137000080800071
:1009d000e30f500023013a00f08080000181800085
:1009e00061005000e0805800f0808800018188009c
:1009f000208080003180800061004000e08048005d
:100a0000208088003180880050848000e10f5000f1
:100a100002003a00156ea8000a00370050848000da
:100a2000e20f500002003a00154ea8000500370002
:100a300050848000e40f500002003a00040ea80029
:100a4000042ea900108080000000e00029003a0078
:100a5000d0808000e18080000001be002080800006
:100a600031808000800f5100818f5900d7003e00f7
:100a700050848000e10f500002003a00156ea9007a
:100a80000e00370050848000e20f500002003a0050
:100a9000154ea9000900370050848000e40f500073
:100aa00006003a00040ea900042ea8005230ef0000
:100ab0005430ef0010002000b08288002630ef0094
:100ac000208180008000e800f00f28000080600096
:100ad0000000e00004003d000000e90001f02f00ec
:100ae000008070000000e800208188000030ef00e6
:100af000b600370010808000e10f5000b3003a00cc
:100b00006084800071848000e00f5000e08f580006
:100b10000e003d00108180006101b90060808000fe
:100b200071808000800f5100818f59008300350053
:100b300010818000cf80de0060848800718488008e
:100b40001430ef001630ef007c0037008084800006
:100b500091848000e00f5000e08f580077003d0046
:100b6000a0808000b180800061004000e0804800eb
:100b7000a0808800b1808800108180006101b900e8
:100b80008080800091808000800f5100818f59000b
:100b90006a00350010818000cf80de0080848800ec
:100ba00091848800a2808000b380800040002000f3
:100bb00001002000800f5100818f59005f00340038
:100bc000628480007384800080848000918480002f
:100bd000800f5100818f590058003d0082848000b1
:100be0009384800060848000718480000000510044
:100bf00081805900823e20008289b900e002b9005c
:100c00008401780003014100833e20000300b80006
:100c10000101410082007800a2808000b380800042
:100c2000c203070060079800710798005084800095
:100c3000e10f500014003a00c080800000047800ea
:100c4000fe009000c00d20008089b9006e00900069
:100c5000e000b90000014100ee009000c00d20004e
:100c60000008b8000101410082007800823e2000a7
:100c700003002000ad0307000000780000005400ce
:100c8000c08088002d00370050848000e20f5000a3
:100c900014003a00c080800000047800fe0090003c
:100ca000400620008089b9006e009000e000b90085
:100cb00000014100ee009000400620000008b8004e
:100cc0000101410082007800823e200003002000e4
:100cd000960307000000780000005400c0808800e0
:100ce0001600370050848000e40f500013003a00d3
:100cf000c080800000047800fe009000409c20002e
:100d00008089b9006e009000e000b9000001410048
:100d1000ee009000409c20000008b8000101410056
:100d200082007800823e2000030020007f0307003d
:100d30000000780000005400c0808800118180000d
:100d4000c0808000808f50002000350050848000db
:100d5000e10f500002003a00156ea9000e003700a6
:100d600050848000e20f500002003a00154ea900a6
:100d70000900370050848000e40f500006003a005c
:100d8000040ea900042ea8005230ef005430ef00ea
:100d900010002000b08288002630ef002081800003
:100da0008000e800f00f2800008060000000e000f4
:100db00004003d000000e90001f02f0000807000f9
:100dc0000000e800208188000030ef00f080800003
:100dd00001818000e00f5000e08f580021003d00ad
:100de00050848000e10f500002003a00156ea90007
:100df0000e00370050848000e20f500002003a00dd
:100e0000154ea9000900370050848000e40f5000ff
:100e100006003a00040ea900042ea8005230ef008c
:100e20005430ef0010002000b08288002000200025
:100e300030818800208180008000e800f00f2800c9
:100e4000008060000000e00004003d000000e900b8
:100e500001f02f00008070000000e8002081880071
:100e60000030ef0050848000e40f500015003a007d
:100e7000b0828000e10f500012003a0090828000a2
:100e8000a182800061004000e080480090828800dc
:100e9000a182880092828000a38280008038210095
:100ea00001002000800f5100818f5900050036009d
:100eb0005230ef005430ef005630ef00040ea9001e
:100ec000042ea900108280002182800042062000aa
:100ed00003002000ad030700e00f5000e08f580032
:100ee0001b003a00a07080004700de0061406000f7
:100ef0000004a200614060000080fb00610060000f
:100f00004700dd00a2708000f1f72f008100610032
:100f100001007000a0708800a07080004800de0012
:100f2000614060000004a200614060000080fb009e
:100f3000610060004800dd00a2708000f1ef2f002a
:100f40008100610001007000a0708800470a07005e
:100f50000068a9000080fa004f0478004f03be002b
:100f60004f02be004f01be004f00be003600f90028
:100f7000004006003600f800809fbe00829fbe0041
:100f8000849fbe00869fbe001600fa0040208000ad
:100f900000407800f043b2002df0b700a00221001d
:100fa0008604070050848000e10f5000c9003a0019
:100fb00072818000838180001014200001002000d5
:100fc000800f5100818f590024023a0032d0bf00b7
:100fd0000004e0002d003a00008080000000e000e6
:100fe0000e00320010002000308188002081800037
:100ff0008000e800f00f2800008060000000e000a2
:1010000004003d000000e90001f02f0000807000a6
:101010000000e80020818800100237000230ef0055
:1010200034d0bf008080fb0035d0bf000080fb00c3
:101030004800dd0001007000300798003e0090007d
:101040008000eb00420620008289b900e002b9006e
:101050008401780003014100430620000300b8002a
:101060000101410082007800d0808800e180880082
:1010700080a9230001002000f08088000181880001
:101080001000200000808800f401370032d0bf003b
:10109000e14f50005b003a00008080000000e0005b
:1010a0000e00320010002000308188002081800076
:1010b0008000e800f00f2800008060000000e000e1
:1010c00004003d000000e90001f02f0000807000e6
:1010d0000000e80020818800e001370010002000b7
:1010e0001080880034d0bf008080fb0035d0bf0066
:1010f0000080fb004800dd00010070004007980000
:101100004e009000c080880010818000cf80de00fb
:1011100040808800518088001430ef001630ef00c6
:101120000080eb008080eb00608488007184880080
:101130000080eb008080eb00808488009184880030
:10114000c08080006101b900408080005180800033
:10115000000051008180590000004000818048005b
:10116000a200200003002000700207000001be0062
:101170004080800051808000020040008380480051
:101180006080880071808800c08080006101b900a3
:101190004080800051808000000051008180590013
:1011a000e509b900e002b9008401780003014100bb
:1011b000530020000300b8000101410082007800c4
:1011c000a200200003002000580207000001be001a
:1011d00040808000518080000200400083804800f1
:1011e000808088009180880080a923000100200071
:1011f000f0808800018188001000200000808800b5
:101200009601370032d0bf00e24f500007003a008d
:1012100031c0b3000000eb006708070031c0b30025
:1012200010002000640807008c01370032d0bf0096
:10123000e34f500089013a0033d0bf000080fb002b
:101240005007980034d0bf008080fb0035d0bf002d
:101250000080fb004800dd0001007000000f7800f6
:101260001e0078000000e00002003a00100020009c
:10127000000f78005e0090000000e00009003a00d6
:101280001e0078008000eb005b0207000001be003a
:101290005e009000660807001e007800c08388008a
:1012a0006e0137005e009000e10f50006b013a00c4
:1012b0001e0078008000eb004f0207000001be0016
:1012c0005e0090005a0807001e0078001084880015
:1012d0006201370050848000e20f5000c9003a00dc
:1012e0007281800083818000201420000100200092
:1012f000800f5100818f590058013a0032d0bf0051
:101300000004e0002d003a00008080000000e000b2
:101310000e00320010002000308188002081800003
:101320008000e800f00f2800008060000000e0006e
:1013300004003d000000e90001f02f000080700073
:101340000000e80020818800440137000230ef00ef
:1013500034d0bf008080fb0035d0bf000080fb0090
:101360004800dd0001007000600798006e009000ea
:101370008000eb00420620008289b900e002b9003b
:101380008401780003014100430620000300b800f7
:101390000101410082007800d0808800e18088004f
:1013a00080a9230001002000f080880001818800ce
:1013b00010002000008088002801370032d0bf00d4
:1013c000e14f50005b003a00008080000000e00028
:1013d0000e00320010002000308188002081800043
:1013e0008000e800f00f2800008060000000e000ae
:1013f00004003d000000e90001f02f0000807000b3
:101400000000e8002081880014013700100020004f
:101410001080880034d0bf008080fb0035d0bf0032
:101420000080fb004800dd0001007000700798009c
:101430007e009000c080880010818000cf80de0098
:1014400040808800518088001430ef001630ef0093
:101450000080eb008080eb0060848800718488004d
:101460000080eb008080eb008084880091848800fd
:10147000c08080006101b900408080005180800000
:101480000000510081805900000040008180480028
:10149000a200200003002000a40107000001be00fc
:1014a000408080005180800002004000838048001e
:1014b0006080880071808800c08080006101b90070
:1014c00040808000518080000000510081805900e0
:1014d000e509b900e002b900840178000301410088
:1014e000530020000300b800010141008200780091
:1014f000a2002000030020008c0107000001be00b4
:1015000040808000518080000200400083804800bd
:10151000808088009180880080a92300010020003d
:10152000f080880001818800100020000080880081
:10153000ca00370032d0bf00e24f500007003a0027
:1015400031c0b3000000eb009b07070031c0b300bf
:101550001000200098070700c000370032d0bf00fd
:10156000e34f5000bd003a0033d0bf000080fb00c5
:10157000000f980034d0bf008080fb0035d0bf0042
:101580000080fb004800dd0001007000100798009b
:101590001e0090000000e00002003a001000200051
:1015a000100798000e0890000000e00009003a00c3
:1015b0001e0090008000eb008f0107000001be00bc
:1015c0000e0890009a0707001e009000c083880054
:1015d000a20037000e089000e10f50009f003a0073
:1015e0001e0090008000eb00830107000001be0098
:1015f0000e0890008e0707001e00900010848800df
:101600009600370050848000e40f500093003a00a9
:1016100032d0bf00e14f50005d003a0000808000f2
:101620000000e0001000320010002000408188001f
:101630001000200030818800208180008000e800b8
:10164000f00f2800008060000000e00004003d0072
:101650000000e90001f02f00008070000000e800a9
:10166000208188007d003700100020001080880055
:1016700034d0bf008080fb0035d0bf000080fb006d
:101680004800dd0001007000100f98001e08900057
:10169000c080880010818000cf80de0040808800fc
:1016a000518088001430ef001630ef000080eb000e
:1016b0008080eb0060848800718488000080eb00eb
:1016c0008080eb008084880091848800c080800046
:1016d0006101b9004080800051808000000051000d
:1016e000818059000000400081804800a200200055
:1016f000030020000d0107000001be0040808000b3
:101700005180800002004000838048006080880093
:1017100071808800c08080006101b9004080800035
:10172000518080000000510081805900e509b90016
:10173000e002b90084017800030141005300200059
:101740000300b8000101410082007800a2002000df
:1017500003002000f50007000001be00408080006b
:101760005180800002004000838048008080880013
:101770009180880080a9230001002000f08088006b
:1017800001818800100020000080880033003700ad
:1017900032d0bf00e24f500007003a0031c0b30022
:1017a0000000eb000407070031c0b3001000200068
:1017b000010707002900370032d0bf00e34f500077
:1017c00026003a0033d0bf000080fb00200f9800b5
:1017d00034d0bf008080fb0035d0bf000080fb000c
:1017e0004800dd0001007000200798002e009000e6
:1017f0000000e00002003a001000200020079800de
:101800002e0890000000e00009003a002e00900031
:101810008000eb00f80007000001be002e089000d9
:10182000030707002e009000c08388000b003700dc
:101830002e089000e10f500008003a002e009000a2
:101840008000eb00ec0007000001be002e089000b5
:10185000f70607002e009000108488000121800008
:1018600000f02f00008060000000e00005003a005a
:10187000102180000000e00002003a000a24a900c4
:101880000468a9000080fa004f03be004f02be00aa
:101890004f01be004f00be003600f90000400600b8
:1018a0003600f800809fbe00829fbe00849fbe006d
:1018b000869fbe000600fa00907080004e00de0099
:1018c000614060000080fb0010079800907080006d
:1018d0004c00de00614060000080fb0020079800a3
:1018e0001e0090000000e0000f003a00f081800030
:1018f000e10f50000c003a0019cea9000000eb00e7
:10190000000f7800010037001e0fe80030062000ad
:101910009e007800808f5000fbff3400c505070053
:10192000d0838800e183880019cea8002e009000a3
:101930000000e0000f003a0000828000e10f50003c
:101940000c003a00198ea9000000eb00000f78008f
:10195000010037001e0fe800300620009e007800ce
:10196000808f5000fbff34000a06070020848800a7
:1019700031848800198ea8009e009000f1818800b3
:10198000ae009000018288000268a9000080fa0081
:101990004f03be004f02be004f01be004f00be000d
:1019a0003600f900004006000040da000000fe00aa
:1019b0000000050003f0a200889fbe008a9fbe00c1
:1019c0008c1f7800c9000700d00033006450e1008c
:1019d0004f0032006420e1005200320003826c00ac
:1019e00007003b000905d0000306d000820f540019
:1019f0000c065d0002003900020032008901780007
:101a0000030678008582550004003d000003fd00b8
:101a10008103fd008502ea008b854200840f72007d
:101a200002003b0060001000e08018006011b80068
:101a30000005eb007a28e1000a0039000600780072
:101a4000c75ddd00f707b200878075002d00370005
:101a5000828171000a017800610560008180d100f7
:101a60000080d3008502e900f9ff3b000604400036
:101a70008784480002003b0060041400e0841c00de
:101a80000988a300070032008a81710082817100f9
:101a9000610164008904d1000884d3008b05e8004b
:101aa000170037000978a30013003a000b00e0008c
:101ab000130034008b05e9000804440089844c00bd
:101ac0000a4474000978a3000d003a000b00e000fe
:101ad000070034008b05e9000804440089844c00a9
:101ae00001003a000b0020000978a300f7ff320044
:101af0000001eb0002003700828171000a017800ca
:101b00003f0007000cf0a70001f0a000880037009c
:101b10006420e10002003a00838f6c0088003300eb
:101b20000801be000200be0081003700839f6800ec
:101b30000100e00002003d0060001000e08018009d
:101b40000300e00002003d0060011100e081190087
:101b50007e0007004f00e00002003b006000100024
:101b6000e0801800000006000001be004a000700e7
:101b70000470a70003f0a1006509b100160032004f
:101b80000d0035006828e10006003500f0ff2f0049
:101b9000f1ff27000300e00013003b0001002800d4
:101ba0000000050000004000818048008502e90037
:101bb000fcff3a0008003700f88f420002003c00aa
:101bc0008000eb00000005008100d1000080d30000
:101bd0008502e800fcff3a000300e00002003b0041
:101be00060001000e0801800000006004f89de0051
:101bf00082017800680037006011b8007600370075
:101c000081002000618055000b003d000b0020008a
:101c100061fe2f000100e1001d003400828171008f
:101c2000610164008904d1000884d3000000e80049
:101c3000faff3a00710020006100640003007000a8
:101c4000020060000900320061044400e0844c009e
:101c50000988a500050032008b05e8006808e1004e
:101c600002003a008904d1000884d300f20f20005a
:101c70000258e10005003d00c75ddd00f907b20034
:101c80008980750008007800000006000bf8270026
:101c90008b00780000000500c70ade00f107b200e3
:101ca000f50fb20008003200e1cf4200020032001e
:101cb0000170a00024000500810f700001003200b7
:101cc0000408050044000500810f700002003a007e
:101cd000140005008502e9000000400081c04800b2
:101ce000fcff3b000170a000240005000004be00c2
:101cf000e9ff07000003be000405be000200be00ad
:101d0000e5ff0700844f7500000006000200be00da
:101d10006450e100050036006420e1000200360056
:101d20000968a30001003a000800be000160a0009d
:101d30004f0678004f05be004f04be0000000600ad
:101d4000f0ff2f00f1ff2700f9ff37006022b800f5
:101d5000060220000000d0008180d2000482d20060
:101d60008582d2000000a0000202520083825a0045
:101d7000030031000202420083824a000000a100f9
:101d80000603e900f3ff3a0000000600efff07003a
:101d90000400be0000000600881f780003047800dd
:101da0000300e00007003d0060001000e080180024
:101db00060011900e081190002003b0001f02d00d4
:101dc000030037000400070008f0a70001f0a0009e
:101dd0004f04780000000600889fbe008a9fbe0066
:101de000008270000402710004827100260032003b
:101df0000004be000200be006011b8006b092000a4
:101e0000950220000182cf000a0039000541b1008f
:101e10000082cf00070039000541b1000982cf00e0
:101e2000040039000541b1000882cf0001003900eb
:101e30000541b10005425200120032000a003b0089
:101e400082817100610164008100d1000080d300b3
:101e50008984d3000884d3008b05e8000442e8009d
:101e6000f7ff3a00070037000804440089844c005b
:101e700000004800818048008b05e9000442e90029
:101e8000f9ff3a005eff07004f05be004f04be0099
:041e90000000060048
:020000040000fa
:101e94000000fa00104ea800106ea900a1368000c0
:101ea40000f82f00808060002002200001007000f4
:101eb400a036880001348000f00f2c008080600080
:101ec40000e0200001007000003488000120800040
:101ed400f08f2f000080600000a0a0000020880088
:101ee4000000000001208000000e200080806000bf
:101ef40000082000808f5000faff3a000164a90016
:101f04008120800000fc2f00008060008020880079
:101f140081208000000c20000100700080208800d7
:101f24009120800080032000010070009020880030
:101f340012e4a80091208000f08f2f0080806000c0
:101f44000050200001007000902088009120800043
:101f540080ff2f00008060000020a00090208800f7
:101f640012c4a8003120800000fe2f000080600011
:101f74000030a0003020880031208000f0ff2100d4
:101f84000080600000f0a000302088000004a80059
:101f94001424ef000004a900f2ff2f000300200026
:101fa4000000eb009402070050848000e10f500011
:101fb40007003a000002eb00f10f20001214200089
:101fc400030020000000eb001c0207001a00370089
:101fd40050848000e20f500007003a000002eb003a
:101fe400f10f200022142000030020000000eb0069
:101ff400120207001000370050848000e40f5000e4
:1020040007003a000002eb00f10f20003214200018
:10201400030020000000eb00080207000600370060
:102024000002eb00f10f2000021420000300200046
:102034000000eb000102070001208000f08f2f0058
:102044000080600000208800000000000120800063
:10205400000e2000008060000000e000fbff3a005a
:102064002024ef000a24a9002a24ef005021800034
:102074004021880040218000102188001021800028
:102084000021880030e4a80031e4a80032e4a8006c
:1020940033e4a80034e4a80035e4a80036e4a8003a
:1020a40037e4a800802180003000b300802188003c
:1020b4008121800000302000010070008021880010
:1020c400902180003000b30090218800912180008d
:1020d400003020000100700090218800a0218000c1
:1020e4003000b300a0218800a1218000003020002e
:1020f40001007000a0218800b02180003000b300ee
:10210400b0218800b121800000302000010070005f
:10211400b02188000c24a80081428000f0ff280030
:10212400808060000000260001007000804288006a
:102134002468a8000080fa00000006000000fa00ed
:1021440004022200045888002444200064588800b3
:102154007400200074588800640420001458880017
:102164000210210003002000020178002258880098
:10217400062bef0001eba8000202200002598800a0
:1021840002442000625988007200200072598800bd
:1021940022022000125988000010210001002000b2
:1021a4000000780020598800262bef0021eba800be
:1021b4000080fa00000006001200fa00889fbe00aa
:1021c4008a9fbe008c9fbe00000f78001e0078001e
:1021d400304090000080fb004400dd006100b80046
:1021e40000f0a700110020000210210003002000cd
:1021f4000002d0008202d000050042004220a80064
:10220400838048004200a9004220ae004200a8009a
:102214000080d300930180000101780092018800be
:10222400000000000000780090007800930188000e
:1022340000000000c0ff2100008060004200de00ba
:102244006101b8001e007800220098003300980055
:102254001e007800304090000080fb004400dd0048
:10226400640040006100b80000f0a70011002000e5
:1022740004102100050020000001d0008401d000da
:10228400030041004220a800858048004200a900c4
:102294004220ae004200a8000080d30093018000d9
:1022a400010178009201880000000000000078001d
:1022b40010007800930188000000000000407800be
:1022c400ef4060001e007800015098001e00780066
:1022d400304090000080fb004400dd006c004000b2
:1022e4006100b80000f0a7001100200006102100d2
:1022f400070020000002d0008602d0000500420042
:102304004220a800878048004200a9004220ae0075
:102314004200a8000080d3009301800001017800ee
:10232400920188000000000000007800100078008e
:1023340093018800000000004800de00804078001f
:102344001e007800714898001e007800304090000c
:102354000080fb004400dd006c0040006100b80018
:1023640000f0a7001100200008102100090020003f
:102374000001d0008801d000030041004220a800e1
:10238400898048004200a9004220ae004200a80013
:102394000080d3009301800001017800920188003d
:1023a400000000000000780010007800930188000d
:1023b40000000000804078001e007800614898000a
:1023c4001e007800304090000080fb004400dd00d7
:1023d4006a0040006100b80000f0a700110020006e
:1023e4000410210014079800050020002507980018
:1023f4001e019000ae0190000002d0008202d000c5
:10240400050042004220a800838048004200a90041
:102414004220ae004200a8000080d3009201800058
:10242400810178009301880000000000000078001a
:102434001000780092018800000000004800de00cf
:10244400804078001e007800514898001e007800f3
:10245400304090000080fb004400dd006a00400032
:102464006100b80000f0a700110020000210210054
:102474003207980003002000430798003e029000b2
:10248400ce0290000001d0008401d000030041007e
:102494004220a800858048004200a9004220ae00e6
:1024a4004200a8000080d3009201800081017800de
:1024b40093018800000000000000780010007800fc
:1024c4009201880000000000804078001e0078001f
:1024d400414898001e007800304090000080fb00c6
:1024e4004400dd00680040006100b80000f0a7006f
:1024f400110020000410210054079800050020005a
:10250400650798005e019000ee0190000002d00083
:102514008202d000050042004220a80083804800c7
:102524004200a9004220ae004200a8000080d3006f
:10253400920180008101780093018800000000006e
:10254400000078001000780092018800000000006c
:102554004800de00804078001e0078003148980072
:102564001e007800304090000080fb004400dd0035
:10257400680040006100b80000f0a70011002000ce
:10258400021021007207980003002000030f980036
:102594007e0290008e0a90000001d0008401d000d9
:1025a400030041004220a800858048004200a900a1
:1025b4004220ae004200a8000080d30092018000b7
:1025c4008101780093018800000000000000780079
:1025d400100078009201880000000000804078001c
:1025e4001e007800214898001e00780030409000ba
:1025f4000080fb004400dd00660040006100b8007c
:1026040000f0a700110020000c1021000d00200094
:102614000002d0008c02d000050042004220a80035
:102624008d8048004200a9004220ae004200a8006c
:102634000080d3009201800081017800930188001a
:10264400000000000000780010007800920188006b
:10265400000000004800de00804078001e00780082
:10266400114898001e007800304090000080fb0064
:102674004400dd00660040006100b80000f0a700df
:10268400110020000a1021000b0020000001d000de
:102694008a01d000030041004220a8008b8048003a
:1026a4004200a9004220ae004200a8000080d300ee
:1026b40092018000810178009301880000000000ed
:1026c40000007800100078009201880000000000eb
:1026d400804078001e007800014898001e007800b1
:1026e40030409000050007004f06be004f05be00b5
:1026f4004f04be000080fa00000006000200fa0049
:10270400004f78001e80fb006101b90080ff2f009c
:10271400f1ff2f000200400083804800f2002000f7
:1027240003002000820f5000838f580041003e00b8
:10273400000601000f0037001100370013003700b6
:102744001500370017003700190037001b00370049
:102754001d0037001f003700210037002300370019
:102764002500370027003700290037002b003700e9
:102774002d0037002104a9002904a9002d003700e9
:102784002124a9002924a9002a0037002144a900f2
:102794002944a900270037002164a9002964a9005d
:1027a400240037002184a9002984a90021003700ce
:1027b40021a4a90029a4a9001e00370021c4a9004e
:1027c40029c4a9001b00370021e4a90029e4a900b9
:1027d400180037002204a9002a04a90015003700b4
:1027e4002224a9002a24a900120037002244a900a7
:1027f4002a44a9000f0037002264a9002a64a90012
:102804000c0037002284a9002a84a900090037009b
:1028140022a4a9002aa4a9000600370022c4a90002
:102824002ac4a9000300370022e4a9002ae4a9006d
:10283400000000000080fa00000006001600fa0004
:102844006007980072079800030f9800110f980012
:10285400240f98006000b800008fbe000004a80098
:102864006e009000000040000000400080007800ee
:102874000044200000804000200798006e00900073
:102884004280de000000400080007800004220000a
:1028940000804000300798006e0090004380de0006
:1028a400000040008000780080412000008040004b
:1028b4004007980040412000500798007e01900096
:1028c4008e099000f07f20000100200002027800b1
:1028d40083017800000178000100780002016200a1
:1028e400008061008000eb00c000dd0000002000db
:1028f400008fbe006110b8001e1f70001e9770008c
:102904001e007800c500dd002e009000010878004c
:102914002e0090000080e8008000eb0001087800a1
:102924003e009000900078006e009000630060000c
:102934004200dd00f20020000010dd000080ea000b
:10294400808060003e009000010878006e009000d6
:10295400630060004200dd009e0890008008dd00f6
:102964003e00900010007800810070003e0090004e
:10297400010878004e009000900078006e009000ee
:102984006700600000004000320020000010dd00fd
:102994000080ea00808060004e009000010878000a
:1029a4006e0090006700600000004000ae089000d8
:1029b4008008dd004e009000100078008100700057
:1029c4004e00900001087800110020006e00900075
:1029d4000008dd00800078005e00900010007800a0
:1029e400810070005e009000010878000004a900d6
:1029f4000080fa00000006000c00fa00300798007e
:102a040042079800530798006000b800008fbe008a
:102a14000004a8003e0090000000400000004000b8
:102a240080007800004320000080400020079800c8
:102a34004e019000de019000f07f20000100200094
:102a44000202780083017800000178000100780018
:102a540002016200008061008000eb00c000dd0024
:102a640000002000008fbe006110b8001e1f70001f
:102a74001e9770001e007800c500dd002e00900037
:102a8400010878002e0090000080e8008000eb0030
:102a9400010878000004a9000080fa000000060084
:102aa4001a00fa00889fbe008a9fbe008c9fbe0059
:102ab40040079800214f9800620798006e0090002c
:102ac4000000e800104078000080fb00c800dd0032
:102ad4006e009000104078000080fb000100700040
:102ae400000f78006e0090006300400010407800f2
:102af4000080fb00c800dd006e0090000080e8004c
:102b0400104078000080fb0001007000100798005e
:102b14006e00900065004000104078000080fb00cb
:102b2400c800dd006e009000640040001040780092
:102b34000080fb0001007000200798006e009000e8
:102b440067004000104078000080fb00c800dd00f2
:102b54006e00900066004000104078000080fb008a
:102b64000100700030079800f2848000ce009000cd
:102b7400f07f2000008060004202dd004410dd0090
:102b84006100b80000f0a700110020000610210029
:102b9400070020000001d0008601d000030041009e
:102ba4004220a800878048004200a9004220ae00cd
:102bb4004200a8000080d300a30180000101780036
:102bc40000007800a201880004087800a3018800ae
:102bd400f08480004400dd000080e8006100b8005b
:102be40000f0a700110020000810210009002000b7
:102bf4000002d0008802d000050042004220a80054
:102c0400898048004200a9004220ae004200a8008a
:102c14000080d3008001eb00a20180000102780053
:102c240000007800a401880003087800a20188004d
:102c3400f0848000ae4890008181fb004400dd00f8
:102c4400640040006100b80000f0a70011002000fb
:102c5400061021007607980002002000020f980059
:102c64007e0290008e0a90000003d0000401d00080
:102c7400020043004220a800858048004200a900c9
:102c84004220ae004200a8000080d300a2018000d0
:102c94000102780000007800a4018800030878008d
:102ca400a2018800f08480004400dd00660040003a
:102cb4006100b80000f0a7001100200003102100fb
:102cc400130f980004002000240f98001e099000a0
:102cd400ae0990000002d0008202d000050042003c
:102ce4004220a800838048004200a9004220ae0090
:102cf4004200a8000080d300a20180008101780076
:102d040000007800a30188001e087800a201880052
:102d1400f08480004400dd00680040006100b800d9
:102d240000f0a7001100200006102100360f9800c3
:102d340002002000420f98003e0a9000ce0a900044
:102d44000003d0000401d000020043004220a80088
:102d5400858048004200a9004220ae004200a8003d
:102d64000080d3009e019000a2018000010278003f
:102d740000007800a401880003087800a2018800fc
:102d8400f08480004400dd006a0040006100b80067
:102d940000f0a700110020000c1021000d002000fd
:102da4008001d0000c02d000048041004220a80021
:102db4008d8048004200a9004220ae004200a800d5
:102dc4000080d300ae019000a201800001027800cf
:102dd40000007800a401880003087800a20188009c
:102de400f08480004400dd006c0040006100b80005
:102df40000f0a700110020000a1021000b002000a1
:102e04008002d0000a03d000068042004220a800bd
:102e14008b8048004200a9004220ae004200a80076
:102e24000080d300be019000a2018000010278005e
:102e340000007800a401880003087800a20188003b
:102e4400f0848000e30f500018003200e30f5000bc
:102e540007003c00e10f500010003200e10f500069
:102e640010003c000000e0000a00320019003700a6
:102e7400e50f500011003200e50f50000d00350041
:102e8400e60f50000f003200e70f50000f00320031
:102e9400100037003064a8000e0037003164a80029
:102ea4000c0037003264a8000a0037003364a8001d
:102eb400080037003464a800060037003564a80011
:102ec400040037003664a800020037003764a80005
:102ed40000000000f08480008000e80070002800fa
:102ee400008060000000e00004003d000000e900f4
:102ef40081ff2f00008070000000e800f08488004b
:102f04004f06be004f05be004f04be000080fa000d
:102f1400000006000000fa0011eea90011cea8007e
:102f240011aea900118ea80019cea800198ea80010
:102f340041428000000027000100700040428800e8
:102f44000268a9002268a80001c8b3000000eb00d1
:102f54001700070001c8b300100020001400070088
:102f640002002000833c24000000eb002f01070036
:102f740002002000833c2400100020002b010700e5
:102f840000192000c08388000019200010848800e4
:102f940051c0b3000000eb000601070051c0b300ac
:102fa40010002000030107000080fa000000060062
:102fb4000400fa00000f7800214798002e4090008a
:102fc4000080fb0001042000810f50000c0032003f
:102fd40001082000810f500004003200010220008b
:102fe400810f50000b0032000f0037004009210010
:102ff4001e00400011c0b300014878000a003700e9
:10300400400921001e00400031c0b300014878008f
:1030140005003700400921001e00400021c0b30014
:1030240001487800000000000080fa00000006005b
:103034000e00fa000000eb00100798006000b800d2
:103044003007980041079800ea0047000000090093
:103054008018eb008058eb000040eb0040479800dc
:1030640021010700404f98001f010700304f9800ce
:103074001d010700204f98000000eb00000f7800ae
:103084001700370015eea8000000eb0010079800a9
:10309400030037001e0090000000e80010079800ad
:1030a4009e00900010032000808f5000f9ff36002e
:1030b40015eea9000000eb0010079800030037008c
:1030c4001e0090000000e800100798009e00900089
:1030d40010032000808f5000f9ff36001e0fe80017
:1030e40094d0bf000080fb009e0f5000e5ff3e001f
:1030f4004e4890000004e00003003d0000c0eb00d7
:1031040040479800020037000040eb004047980019
:103114004e4090000080fb008000eb00c801dd0001
:10312400020020004e4890000080fb008000eb006d
:10313400c000dd00000020000001710081817100e9
:103144003e4890000082fb008002eb004828dd002e
:10315400c820de00810070004820dd0000017100fd
:10316400818171002e4890000080fb008000eb00fc
:1031740000007100818071003007980041079800b9
:103184003e009000ce0090000080fa00000006008f
:103194000e00fa000000eb00100798006000b80071
:1031a4003007980041079800ea0047000000090032
:1031b4008018eb008058eb000040eb00404798007b
:1031c400fa000700404f9800f8000700304f9800bd
:1031d400f6000700204f98000000eb00000f780075
:1031e4001700370015aea8000000eb001007980088
:1031f400030037001e0090000000e800100798004c
:103204009e00900010032000808f5000f9ff3600cc
:1032140015aea9000000eb0010079800030037006a
:103224001e0090000000e800100798009e00900027
:1032340010032000808f5000f9ff36001e0fe800b5
:1032440095d0bf000080fb009e0f5000e5ff3e00bc
:103254004e4890000004e00003003d0000c0eb0075
:1032640040479800020037000040eb0040479800b8
:103274004e4090000080fb008000eb00c801dd00a0
:10328400020020004e4890000080fb008000eb000c
:10329400c000dd0000002000000171008181710088
:1032a4003e4890000082fb008002eb004828dd00cd
:1032b400c820de00810070004820dd00000171009c
:1032c400818171002e4890000080fb008000eb009b
:1032d4000000710081807100300798004107980058
:1032e4003e009000ce0090000080fa00000006002e
:1032f4000200fa00000f78001e0078000000e000d1
:103304000b003a004aff07000001be00a10521009e
:103314001e0078004200dd00008040009000900014
:103324001000780000005100818059000f00370020
:103334001e007800e10f50000b003a0094ff0700d4
:103344000001be00a10521001e0078004200dd003e
:1033540000804000900090001000780000005100b0
:1033640081805900010037006000b8000080fa0035
:10337400000006000200fa00000f78001e0078002a
:10338400dbff07000002be00610921001e00780077
:103394004200dd00008040009000900010007800a2
:1033a4000001be000400be00dff907000080fa003f
:1033b400000006000400fa00000f7800214798007e
:1033c4002e4090008080fb001e0078000001400029
:1033d4006006210000004100010878001e0078000a
:1033e40080004000a0062100008040008000eb0027
:1033f40001087800e10621001e0078004200dd008b
:10340400008140006000b8000089be001e00780002
:1034140080004000200621000080400011002000b0
:10342400010878000080fa00000006000600fa0097
:10343400000f780012079800230798001e009000e0
:10344400ae009000c7f90700630921001e0178004f
:103454004211dd00028141000089be000080fa00b3
:10346400000006000200fa00000f78006109210044
:103474001e0078004200dd000080400090009000b3
:10348400100078000080fa00000006000600fa0030
:10349400000f78001207980023079800a105210067
:1034a4001e0078004200dd00008040001e019000f4
:1034b400ae0190000288be000080fa000000060001
:1034c4000200fa00000f7800a10521001e00780018
:1034d4004200dd0000804000900090001000780061
:1034e4000080fa00000006000400fa000040eb002f
:1034f400004f78000040eb0010479800250037008b
:1035040015eea8000000eb00100798000300370038
:103514001e0090000000e800100798009e00900034
:1035240010032000808f5000f9ff36009070800057
:103534004e00de00614060008080fb001e40900071
:103544000080fb00670010000008dd008040780068
:103554001e40780000c07000004f780015eea900ee
:103564000000eb0010079800030037001e009000d5
:103574000000e800100798009e009000100320004f
:10358400808f5000f9ff36001e4090000040e80094
:10359400104798001e409000e74f5000d8ff3600b7
:1035a4001e4078000080fa00000006000400fa00c3
:1035b4000040eb00004f78000040eb0010479800fb
:1035c4002500370015aea8000000eb001007980096
:1035d400030037001e0090000000e8001007980068
:1035e4009e00900010032000808f5000f9ff3600e9
:1035f400907080004c00de00614060008080fb0021
:103604001e4090000080fb00670010000008dd00f1
:10361400804078001e40780000c07000004f7800a1
:1036240015aea9000000eb00100798000300370056
:103634001e0090000000e800100798009e00900013
:1036440010032000808f5000f9ff36001e409000c8
:103654000040e800104798001e409000e74f5000db
:10366400d8ff36001e4078000080fa0000000600f3
:103674000000fa00113a8000f08f2f008080600073
:103684000030200001007000103a8800313a8000b8
:1036940000e02f00008060002001b300303a880071
:1036a400213a8000f0f32f0000806000203a880067
:1036b400213a800000fe2f00008060000000a0007e
:1036c400203a880040a7a90000000000113a8000b9
:1036d40000022000008060000000e000fbff3200d8
:1036e4000080fa00000006000a00fa00e0ff07006c
:1036f4006000b80010079800210798000600370002
:103704001e009000ae00900061004000e080480080
:1037140010079800210798001e019000ae01900048
:10372400f07b220091002000800f5100818f59000e
:10373400f3ff3400007c2200910020003007980041
:1037440041079800000000003e009000ce00900069
:103754000081700002f0a7000201ea000201ea0001
:103764004f11de000241780061005000e0805800f3
:1037740030079800410798000204e000f2ff3a0085
:10378400bbff07001e2eef00f070800070708800f1
:10379400008ea800108ea800006ea800112ea800ac
:1037a4000000eb00000f78001070800070006000d3
:1037b4000000e00001003a001e0fe8009070800055
:1037c400700060000000e00001003a001e8fe80075
:1037d40010708000680060000000e00002003a0001
:1037e4009e007800648f40009170800000202000cb
:1037f400008060000000e00002003a009e007800b3
:10380400688f40001e007800e10f500003003a006a
:1038140010002000508488000d0037001e0078003e
:10382400e20f500003003a0020002000508488007a
:10383400070037001e007800e40f500003003a0030
:103844004000200050848800010037008a30ef00d7
:103854008ff9070039fa070095000700a90007004f
:10386400acfd0700ffff37000800fa00e08180008c
:103874000000e800e081880050848000e10f5000df
:103884001e003a00b083800000407800004f7800aa
:10389400b08380004800de000040780010479800a4
:1038a4007ed0bf0020479800c0838000004078008d
:1038b40030479800c08380004800de000040780054
:1038c40040479800008080000040780050479800ee
:1038d400208180000040780060479800308180009b
:1038e40000407800704798000e01780081c0b30052
:1038f400101520006afc0700500037005084800037
:10390400e20f50000300320050848000e40f5000a6
:1039140044003a00e0818000610060000000e000a3
:103924001a003a000040eb00004f7800b08380009a
:103934000040780010479800b08380004800de0003
:1039440000407800204798007ed0bf0030479800a0
:10395400c08380000040780040479800c083800006
:103964004800de0000407800504798000084800042
:103974000040780060479800008480004800de0022
:1039840000407800704798001600370010c0b3005c
:10399400004f780088d0bf00104798001084800042
:1039a4000040780020479800108480004800de0022
:1039b4000040780030479800008080000040780084
:1039c40040479800208180000040780050479800cc
:1039d4003081800000407800604798000040eb0090
:1039e4007047980050848000e20f500005003a00b0
:1039f4000e01780081c0b3002015200028fc0700c8
:103a04000e00370050848000e40f50000a003a0092
:103a14000e01780081c0b3003015200020fc07009f
:103a2400060037000e01780081c0b30000152000a5
:103a34001bfc070001003700000000000080fa00b2
:043a44000000060078
:020000040000fa
:103a48000011000000010000800000008a10000042
:103a58000a000000820000000100ff00ffffff00d5
:103a6800ffffff00ff000000001000005a000000e8
:103a7800800000009e10000002000000800000008e
:103a8800941000000a0000008200000001010100fb
:103a98000000000001000000000000005a100000b3
:0c3aa80030000000800000000000000062
:020000040000fa
:103ab4000000fa000421a90004c1a9002108800023
:103ac400f0fc2f00008060000040a0002008880067
:103ad4000021ef00703821001008880001428000a6
:103ae400f0ff28000080600000e0a0000042880091
:103af4000068a9002068a80005e1a8000080fa0079
:103b0400000006000000fa00100ea900000ea90033
:103b1400002ea90010eea900110ea900102ea90074
:103b2400114ea900116ea9000080fa0000000600e1
:020000040000fa
:04afe000ceff0000a0
:020000040000fa
:04afe400ffff00006b
:020000040000fa
:04afe8007fff0000e7
:020000040000fa
:04afec0058ff00000a
:020000040000fa
:04aff0007bff0000e3
:00000001FF
