:020000040000fa
:080000000002040000000000f2
:020000040000fa
:040008003c040000b4
:020000040000fa
:04000c003c040000b0
:020000040000fa
:040010003c040000ac
:020000040000fa
:040014003c040000a8
:020000040000fa
:040018003c040000a4
:020000040000fa
:04001c003c040000a0
:020000040000fa
:040020003c0400009c
:020000040000fa
:040024003c04000098
:020000040000fa
:040028003c04000094
:020000040000fa
:04002c003c04000090
:020000040000fa
:040030003c0400008c
:020000040000fa
:04003400fa020000cc
:020000040000fa
:040038003c04000084
:020000040000fa
:04003c003c04000080
:020000040000fa
:040040003c0400007c
:020000040000fa
:040044003c04000078
:020000040000fa
:040048003c04000074
:020000040000fa
:04004c003c04000070
:020000040000fa
:040050003c0400006c
:020000040000fa
:040054003c04000068
:020000040000fa
:040058003c04000064
:020000040000fa
:04005c003c04000060
:020000040000fa
:040060003c0400005c
:020000040000fa
:040064003c04000058
:020000040000fa
:040068003c04000054
:020000040000fa
:04006c003c04000050
:020000040000fa
:040070003c0400004c
:020000040000fa
:040074003c04000048
:020000040000fa
:040078003c04000044
:020000040000fa
:04007c003c04000040
:020000040000fa
:040080003c0400003c
:020000040000fa
:040084003c04000038
:020000040000fa
:040088003c04000034
:020000040000fa
:04008c003c04000030
:020000040000fa
:040090003c0400002c
:020000040000fa
:040094003c04000028
:020000040000fa
:040098003c04000024
:020000040000fa
:04009c003c04000020
:020000040000fa
:0400a0003c0400001c
:020000040000fa
:0400a4003c04000018
:020000040000fa
:0400a8003c04000014
:020000040000fa
:0400ac003c04000010
:020000040000fa
:0400b0003c0400000c
:020000040000fa
:0400b4000204000042
:020000040000fa
:0400b8003c04000004
:020000040000fa
:0400bc003c04000000
:020000040000fa
:0400c0003c040000fc
:020000040000fa
:0400c4003c040000f8
:020000040000fa
:0400c8003c040000f4
:020000040000fa
:0400cc003c040000f0
:020000040000fa
:0400d0003c040000ec
:020000040000fa
:0400d4003c040000e8
:020000040000fa
:0400d8003c040000e4
:020000040000fa
:0400dc003c040000e0
:020000040000fa
:0400e0003c040000dc
:020000040000fa
:0400e4003c040000d8
:020000040000fa
:0400e8003c040000d4
:020000040000fa
:0400ec003c040000d0
:020000040000fa
:0400f0003c040000cc
:020000040000fa
:0400f4003c040000c8
:020000040000fa
:0400f8003c040000c4
:020000040000fa
:0400fc003c040000c0
:020000040000fa
:040100003c040000bb
:020000040000fa
:040104003c040000b7
:020000040000fa
:040108003c040000b3
:020000040000fa
:04010c003c040000af
:020000040000fa
:040110003c040000ab
:020000040000fa
:040114003c040000a7
:020000040000fa
:040118003c040000a3
:020000040000fa
:04011c003c0400009f
:020000040000fa
:040120003c0400009b
:020000040000fa
:040124003c04000097
:020000040000fa
:040128003c04000093
:020000040000fa
:04012c003c0400008f
:020000040000fa
:040130003c0400008b
:020000040000fa
:040134003c04000087
:020000040000fa
:040138003c04000083
:020000040000fa
:04013c003c0400007f
:020000040000fa
:040140003c0400007b
:020000040000fa
:040144003c04000077
:020000040000fa
:040148003c04000073
:020000040000fa
:04014c003c0400006f
:020000040000fa
:040150003c0400006b
:020000040000fa
:040154003c04000067
:020000040000fa
:040158003c04000063
:020000040000fa
:04015c003c0400005f
:020000040000fa
:040160003c0400005b
:020000040000fa
:040164003c04000057
:020000040000fa
:040168003c04000053
:020000040000fa
:04016c003c0400004f
:020000040000fa
:040170003c0400004b
:020000040000fa
:040174003c04000047
:020000040000fa
:040178003c04000043
:020000040000fa
:04017c003c0400003f
:020000040000fa
:040180003c0400003b
:020000040000fa
:040184003c04000037
:020000040000fa
:040188003c04000033
:020000040000fa
:04018c003c0400002f
:020000040000fa
:040190003c0400002b
:020000040000fa
:040194003c04000027
:020000040000fa
:040198003c04000023
:020000040000fa
:04019c003c0400001f
:020000040000fa
:0401a0003c0400001b
:020000040000fa
:0401a4003c04000017
:020000040000fa
:0401a8003c04000013
:020000040000fa
:0401ac003c0400000f
:020000040000fa
:0401b0003c0400000b
:020000040000fa
:0401b4003c04000007
:020000040000fa
:0401b8003c04000003
:020000040000fa
:0401bc003c040000ff
:020000040000fa
:0401c0003c040000fb
:020000040000fa
:0401c4003c040000f7
:020000040000fa
:0401c8003c040000f3
:020000040000fa
:0401cc003c040000ef
:020000040000fa
:0401d0003c040000eb
:020000040000fa
:0401d4003c040000e7
:020000040000fa
:0401d8003c040000e3
:020000040000fa
:0401dc003c040000df
:020000040000fa
:0401e0003c040000db
:020000040000fa
:0401e4003c040000d7
:020000040000fa
:0401e8003c040000d3
:020000040000fa
:0401ec003c040000cf
:020000040000fa
:0401f0003c040000cb
:020000040000fa
:0401f4003c040000c7
:020000040000fa
:0401f8003c040000c3
:020000040000fa
:0401fc003c040000bf
:020000040000fa
:040200003c040000ba
:020000040000fa
:040204003c040000b6
:020000040000fa
:040208003c040000b2
:020000040000fa
:04020c003c040000ae
:020000040000fa
:040210003c040000aa
:020000040000fa
:040214003c040000a6
:020000040000fa
:040218003c040000a2
:020000040000fa
:04021c003c0400009e
:020000040000fa
:040220003c0400009a
:020000040000fa
:040224003c04000096
:020000040000fa
:040228003c04000092
:020000040000fa
:04022c003c0400008e
:020000040000fa
:040230003c0400008a
:020000040000fa
:040234003c04000086
:020000040000fa
:040238003c04000082
:020000040000fa
:04023c003c0400007e
:020000040000fa
:040240003c0400007a
:020000040000fa
:040244003c04000076
:020000040000fa
:040248003c04000072
:020000040000fa
:04024c003c0400006e
:020000040000fa
:040250003c0400006a
:020000040000fa
:040254003c04000066
:020000040000fa
:040258003c04000062
:020000040000fa
:04025c003c0400005e
:020000040000fa
:040260003c0400005a
:020000040000fa
:040264003c04000056
:020000040000fa
:040268003c04000052
:020000040000fa
:04026c003c0400004e
:020000040000fa
:040270003c0400004a
:020000040000fa
:040274003c04000046
:020000040000fa
:040278003c04000042
:020000040000fa
:04027c003c0400003e
:020000040000fa
:040280003c0400003a
:020000040000fa
:100400000f2021000eff21000e01880000000000d7
:10041000000020000000e000020032000001200087
:100420002002880014000700150107000000e0000a
:1004300003003a00001821000100200002003700ec
:100440000000200001002000810f70000100320038
:100450000f000700000020000000e0000200320052
:100460000000020000000000e21002000000000096
:100470000040da000000fe00200020000000e00044
:1004800002003200100020009001880000000600e9
:10049000a1028800800478000000eb001f003700f4
:1004a000e284440054a0b4009905ba00e2844400f8
:1004b00054a0b4009906ba00e284440054a0b400e9
:1004c0000006eb00476fde00fd07b200ae018800ba
:1004d000636ce10003003a000ad801000000eb0061
:1004e0000e003700606ce10008003a00004deb00a0
:1004f0000a05e800020039003420ec000af0a000f0
:100500008b05e900f9ff3e00040037006168e10057
:10051000010032000086eb000b00070019c7ba008b
:100520000e04e0001905ba0003003a000a00e000da
:10053000dbff3a0000000600fe07b200ae028800b2
:100540008a047800f5ff37000cd0a300e20f4d00bd
:100550001c00390089027800354dba000a05e80010
:10056000020039003420ec000af0a0008b05e900fd
:100570000f003200254dba000a05e80002003900dc
:100580003420ec000af0a0008b05e90008003200de
:100590000c00e0000600320015cdba000a05e800a4
:1005a000020039003420ec000af0a0008b05e900bd
:1005b0008984e80054a0b4000b00e000e2ff3a0098
:1005c000000006009902ba00055d78008b05e9007d
:1005d000f7ff3200c82ade00055d78008b05e900d0
:1005e000f3ff32000c00e000f1ff320019ddba0029
:1005f000eeff37003600f800809fbe00829fbe00ed
:10060000849fbe00869fbe000000fa0030828000fa
:100610004182800061004000e08048003082880014
:1006200041828800808180000000e00013003a00d1
:100630009170800000402000008060000000e00019
:1006400004003200508280000000e80050828800e0
:10065000010037004a30ef0051828000800c2000fa
:10066000808f500016003400100020008081880028
:100670004a30ef004c30ef001100370091708000dd
:1006800000402000008060000000e00004003a000c
:10069000608280000000e80060828800010037006e
:1006a0004c30ef0061828000800c2000808f500071
:1006b000030034003030ef004a30ef004c30ef00e0
:1006c000908180000000e00013003a0091708000eb
:1006d00000802000008060000000e0000400320084
:1006e000708280000000e8007082880001003700fe
:1006f0004e30ef0071828000800c2000808f50000f
:100700001600340010002000908188004e30ef0069
:100710005030ef0011003700917080000080200001
:10072000008060000000e00004003a008082800049
:100730000000e80080828800010037005030ef00a0
:1007400081828000800c2000808f500003003400e4
:100750003230ef004e30ef005030ef00308280003a
:100760004182800042062000030020009a0007001a
:10077000e00f5000e08f58001a003a00207080000f
:1007800000407800614060000004a2006140600009
:100790000080fb006100600022708000e1ff2f00fc
:1007a00081006100010070002070880020708000ce
:1007b0000000d100614060000004a20061406000c0
:1007c0000080fb006100600000004000227080009b
:1007d000d1ff2f00810061000100700020708800af
:1007e000a50607000068a9000080fa004f03be00bc
:1007f0004f02be004f01be004f00be003600f900a0
:10080000004006003600f800809fbe00829fbe00b8
:10081000849fbe00869fbe000000fa00402080003a
:1008200000407800f043b20037f0b70040032100e9
:10083000180107000121800000f02f0000806000f7
:100840000000e00005003a00102180000000e000f8
:1008500002003a000a24a9000468a9000080fa00f6
:100860004f03be004f02be004f01be004f00be004e
:100870003600f900004006000040da000000fe00eb
:1008800000000500839f68000100e00002003d00b9
:1008900060001000e08018000300e00002003d004e
:1008a00060011100e08119003b0007004f00e000eb
:1008b00002003b0060001000e0801800000006000d
:1008c0000001be001f0007000470a70003f0a10094
:1008d0006509b100160032000d0035006828e100fe
:1008e00006003500f0ff2f00f1ff27000300e000b5
:1008f00013003b000100280000000500000040003c
:10090000818048008502e900fcff3a0008003700ba
:10091000f88f420002003c008000eb000000050060
:100920008100d1000080d3008502e800fcff3a007e
:100930000300e00002003b0060001000e0801800af
:1009400000000600c70ade00f107b200f50fb20092
:1009500008003200e1cf4200020032000170a00026
:1009600024000500810f700001003200040805001a
:1009700044000500810f700002003a0014000500d9
:100980008502e9000000400081c04800fcff3b00f8
:100990000170a000240005006022b80006022000bb
:1009a0000000d0008180d2000482d2008582d20073
:1009b0000000a0000202520083825a0003003100ae
:1009c0000202420083824a000000a1000603e900ff
:1009d000f3ff3a0000000600efff07000400be002e
:0409e000000006000d
:020000040000fa
:1009e4000000fa00104ea800106ea900a136800085
:1009f40000f82f00808060002002200001007000b9
:100a0400a036880001348000f00f2c008080600044
:100a140000e0200001007000003488000120800004
:100a2400f08f2f000080600000a0a000002088004c
:100a34000000000001208000000e20008080600083
:100a440000082000808f5000faff3a000164a900da
:100a54008120800000fc2f0000806000802088003e
:100a640081208000000c200001007000802088009c
:100a740091208000800320000100700090208800f5
:100a840012e4a80091208000f08f2f008080600085
:100a94000050200001007000902088009120800008
:100aa40080ff2f00008060000020a00090208800bc
:100ab40012c4a8003120800000fe2f0000806000d6
:100ac4000030a0003020880031208000f0ff210099
:100ad4000080600000f0a000302088000004a8001e
:100ae4001424ef000004a900f2ff2f0003002000eb
:100af4000000eb00760207000002eb00f10f20007b
:100b040002402000030020000000eb000102070067
:100b140001208000f08f2f000080600000208800fa
:100b24000000000001208000000e20000080600012
:100b34000000e000fbff3a002024ef000a24a90093
:100b44002a24ef00502180004021880040218000a9
:100b540010218800102180000021880030e4a800c2
:100b640031e4a80032e4a80033e4a80034e4a80087
:100b740035e4a80036e4a80037e4a800802180000a
:100b84003000b300802188008121800000302000e3
:100b94000100700080218800902180003000b300a3
:100ba4009021880091218000003020000100700015
:100bb40090218800a02180003000b300a02188008b
:100bc400a12180000030200001007000a0218800d5
:100bd400b02180003000b300b0218800b121800032
:100be4000030200001007000b02188000c24a8000f
:100bf40081428000f0ff2800808060000000260011
:100c040001007000804288002468a8000080fa0077
:100c1400000006000000fa000402220004588800c4
:100c2400244420006458880074002000745888000c
:100c340064042000145888000210210003002000de
:100c44000201780022588800062bef0001eba8006f
:100c540002022000025988000244200062598800e0
:100c64007200200072598800220220001259880064
:100c740000102100010020000000780020598800a5
:100c8400262bef0021eba8000080fa0000000600ec
:100c94001200fa00889fbe008a9fbe008c9fbe008f
:100ca400000f78001e007800304090000080fb00a8
:100cb4004400dd006100b80000f0a700110020002e
:100cc40002102100030020000002d0008202d000a4
:100cd400050042004220a800838048004200a90089
:100ce4004220ae004200a8000080d300930180009f
:100cf40001017800920188000000000000007800e3
:100d0400900078009301880000000000c0ff2100db
:100d1400008060004200de006101b8001e0078001f
:100d240022009800330098001e00780030409000a4
:100d34000080fb004400dd00640040006100b80056
:100d440000f0a7001100200004102100050020007d
:100d54000001d0008401d000030041004220a8001b
:100d6400858048004200a9004220ae004200a8004d
:100d74000080d30093018000010178009201880073
:100d84000000000000007800100078009301880043
:100d94000000000000407800ef4060001e00780072
:100da400015098001e007800304090000080fb0045
:100db4004400dd006c0040006100b80000f0a700b2
:100dc4001100200006102100070020000002d000be
:100dd4008602d000050042004220a8008780480017
:100de4004200a9004220ae004200a8000080d300c7
:100df4009301800001017800920188000000000046
:100e040000007800100078009301880000000000c2
:100e14004800de00804078001e0078007148980089
:100e24001e007800304090000080fb004400dd008c
:100e34006c0040006100b80000f0a7001100200021
:100e440008102100090020000001d0008801d00012
:100e5400030041004220a800898048004200a90004
:100e64004220ae004200a8000080d300930180001d
:100e74000101780092018800000000000000780061
:100e84001000780093018800000000008040780082
:100e94001e007800614898001e00780030409000e1
:100ea4000080fb004400dd006a0040006100b800df
:100eb40000f0a7001100200004102100140798007e
:100ec40005002000250798001e019000ae01900047
:100ed4000002d0008202d000050042004220a80097
:100ee400838048004200a9004220ae004200a800ce
:100ef4000080d30092018000810178009301880072
:100f040000000000000078001000780092018800c2
:100f1400000000004800de00804078001e007800d9
:100f2400514898001e007800304090000080fb007b
:100f34004400dd006a0040006100b80000f0a70032
:100f44001100200002102100320798000300200045
:100f5400430798003e029000ce0290000001d000aa
:100f64008401d000030041004220a800858048008d
:100f74004200a9004220ae004200a8000080d30035
:100f84009201800081017800930188000000000034
:100f94000000780010007800920188000000000032
:100fa400804078001e007800414898001e007800b8
:100fb400304090000080fb004400dd0068004000e9
:100fc4006100b80000f0a700110020000410210007
:100fd4005407980005002000650798005e01900002
:100fe400ee0190000002d0008202d0000500420011
:100ff4004220a800838048004200a9004220ae009d
:101004004200a8000080d300920180008101780092
:1010140093018800000000000000780010007800b0
:1010240092018800000000004800de008040780043
:101034001e007800314898001e007800304090006f
:101044000080fb004400dd00680040006100b8003f
:1010540000f0a70011002000021021007207980080
:1010640003002000030f98007e0290008e0a900077
:101074000001d0008401d000030041004220a800f8
:10108400858048004200a9004220ae004200a8002a
:101094000080d300920180008101780093018800d0
:1010a4000000000000007800100078009201880021
:1010b40000000000804078001e007800214898005d
:1010c4001e007800304090000080fb004400dd00ea
:1010d400660040006100b80000f0a7001100200085
:1010e4000c1021000d0020000002d0008c02d00062
:1010f400050042004220a8008d8048004200a9005b
:101104004220ae004200a8000080d300920180007b
:10111400810178009301880000000000000078003d
:101124001000780092018800000000004800de00f2
:10113400804078001e007800114898001e00780056
:10114400304090000080fb004400dd006600400059
:101154006100b80000f0a700110020000a1021006f
:101164000b0020000001d0008a01d00003004100e0
:101174004220a8008b8048004200a9004220ae0013
:101184004200a8000080d300920180008101780011
:10119400930188000000000000007800100078002f
:1011a4009201880000000000804078001e00780052
:1011b400014898001e0078003040900005000700a8
:1011c4004f06be004f05be004f04be000080fa006b
:1011d400000006000200fa00004f78001e80fb00a9
:1011e4006101b90080ff2f00f1ff2f0002004000d1
:1011f40083804800f200200003002000820f50008a
:10120400838f580041003e00000601000f003700a4
:10121400110037001300370015003700170037009e
:10122400190037001b0037001d0037001f0037006e
:10123400210037002300370025003700270037003e
:10124400290037002b0037002d0037002104a900a6
:101254002904a9002d0037002124a9002924a9006c
:101264002a0037002144a9002944a9002700370097
:101274002164a9002964a900240037002184a9005d
:101284002984a9002100370021a4a90029a4a900c8
:101294001e00370021c4a90029c4a9001b0037007f
:1012a40021e4a90029e4a900180037002204a900b8
:1012b4002a04a900150037002224a9002a24a90021
:1012c400120037002244a9002a44a9000f00370065
:1012d4002264a9002a64a9000c0037002284a90012
:1012e4002a84a9000900370022a4a9002aa4a9007d
:1012f4000600370022c4a9002ac4a900030037004d
:1013040022e4a9002ae4a900000000000080fa00f9
:10131400000006001600fa006007980072079800a3
:10132400030f9800110f9800240f98006000b80074
:10133400008fbe000004a8006e0090000000400072
:10134400000040008000780000442000008040003d
:10135400200798006e0090004280de0000004000ec
:101364008000780000422000008040003007980090
:101374006e0090004380de00000040008000780092
:101384008041200000804000400798004041200038
:10139400500798007e0190008e099000f07f200095
:1013a4000100200002027800830178000001780027
:1013b4000100780002016200008061008000eb00ff
:1013c400c000dd0000002000008fbe006110b800e6
:1013d4001e1f70001e9770001e007800c500dd00ff
:1013e4002e009000010878002e0090000080e80094
:1013f4008000eb00010878003e0090009000780027
:101404006e009000630060004200dd00f2002000e6
:101414000010dd000080ea00808060003e00900043
:10142400010878006e009000630060004200dd0057
:101434009e0890008008dd003e00900010007800b7
:10144400810070003e009000010878004e0090007a
:10145400900078006e00900067006000000040007b
:10146400320020000010dd000080ea00808060006f
:101474004e009000010878006e0090006700600044
:1014840000004000ae0890008008dd004e0090008f
:1014940010007800810070004e0090000108780070
:1014a400110020006e0090000008dd00800078002c
:1014b4005e00900010007800810070005e009000d3
:1014c400010878000004a9000080fa00000006006a
:1014d4000c00fa0030079800420798005307980060
:1014e4006000b800008fbe000004a8003e00900019
:1014f400000040000000400080007800004320000d
:1015040000804000200798004e019000de0190000a
:10151400f07f20000100200002027800830178009f
:10152400000178000100780002016200008061007f
:101534008000eb00c000dd0000002000008fbe0032
:101544006110b8001e1f70001e9770001e00780006
:10155400c500dd002e009000010878002e009000e8
:101564000080e8008000eb00010878000004a90076
:101574000080fa00000006001a00fa00889fbe00ee
:101584008a9fbe008c9fbe0040079800214f9800a0
:10159400620798006e0090000000e8001040780098
:1015a4000080fb00c800dd006e0090001040780051
:1015b4000080fb0001007000000f78006e009000b6
:1015c40063004000104078000080fb00c800dd008c
:1015d4006e0090000080e800104078000080fb005e
:1015e40001007000100798006e0090006500400034
:1015f400104078000080fb00c800dd006e00900001
:1016040064004000104078000080fb00010070007e
:10161400200798006e00900067004000104078009a
:101624000080fb00c800dd006e00900066004000f2
:10163400104078000080fb00010070003007980023
:10164400e2828000ce009000f07f200000806000e5
:101654004202dd004410dd006100b80000f0a70084
:101664001100200006102100070020000001d00016
:101674008601d000030041004220a8008780480072
:101684004200a9004220ae004200a8000080d3001e
:10169400a30180000101780000007800a201880005
:1016a40004087800a3018800e08280004400dd0083
:1016b4000080e8006100b80000f0a70011002000dd
:1016c40008102100090020000002d0008802d00088
:1016d400050042004220a800898048004200a90079
:1016e4004220ae004200a8000080d3008001eb003d
:1016f400a20180000102780000007800a4018800a3
:1017040003087800a2018800e0828000ae489000bf
:101714008181fb004400dd00640040006100b800ea
:1017240000f0a700110020000610210076079800a1
:1017340002002000020f98007e0290008e0a9000a2
:101744000003d0000401d000020043004220a8009e
:10175400858048004200a9004220ae004200a80053
:101764000080d300a201800001027800000078000c
:10177400a401880003087800a2018800e0828000a8
:101784004400dd00660040006100b80000f0a700de
:101794001100200003102100130f98000400200002
:1017a400240f98001e099000ae0990000002d0009a
:1017b4008202d000050042004220a8008380480035
:1017c4004200a9004220ae004200a8000080d300dd
:1017d400a20180008101780000007800a301880044
:1017e4001e087800a2018800e08280004400dd0029
:1017f400680040006100b80000f0a700110020005c
:1018040006102100360f980002002000420f9800b5
:101814003e0a9000ce0a90000003d0000401d000dc
:10182400020043004220a800858048004200a9002d
:101834004220ae004200a8000080d3009e01900028
:10184400a20180000102780000007800a401880051
:1018540003087800a2018800e08280004400dd00d3
:101864006a0040006100b80000f0a70011002000e9
:101874000c1021000d0020008001d0000c02d000cb
:10188400048041004220a8008d8048004200a90045
:101894004220ae004200a8000080d300ae019000b8
:1018a400a20180000102780000007800a4018800f1
:1018b40003087800a2018800e08280004400dd0073
:1018c4006c0040006100b80000f0a7001100200087
:1018d4000a1021000b0020008002d0000a03d0006f
:1018e400068042004220a8008b8048004200a900e4
:1018f4004220ae004200a8000080d300be01900048
:10190400a20180000102780000007800a401880090
:1019140003087800a2018800e0828000e30f5000f1
:1019240018003200e30f500007003c00e10f5000a4
:1019340010003200e10f500010003c000000e000f5
:101944000a00320019003700e50f50001100320080
:10195400e50f50000d003500e60f50000f00320077
:10196400e70f50000f003200100037003064a80069
:101974000e0037003164a8000c0037003264a80060
:101984000a0037003364a800080037003464a80054
:10199400060037003564a800040037003664a80048
:1019a400020037003764a80000000000e0828000d5
:1019b4008000e80070002800008060000000e00063
:1019c40004003d000000e90081ff2f00008070004a
:1019d4000000e800e08288004f06be004f05be000c
:1019e4004f04be000080fa00000006000000fa0068
:1019f40011eea90011cea80011aea900118ea80005
:101a040019cea800198ea8004142800000002700ca
:101a140001007000404288000268a9002268a80002
:101a240001c8b3000000eb001700070001c8b300b1
:101a3400100020001400070002002000833c240052
:101a44000000eb002f01070002002000833c24006b
:101a5400100020002b01070000192000f0808800ee
:101a6400001920004081880051c0b3000000eb0041
:101a74000601070051c0b300100020000301070055
:101a84000080fa00000006000400fa00000f78004d
:101a9400214798002e4090000080fb0001042000a4
:101aa400810f50000c00320001082000810f50000b
:101ab4000400320001022000810f50000b003200ac
:101ac4000f003700200521001e00400011c0b300a4
:101ad400014878000a003700200521001e0040005c
:101ae40031c0b3000148780005003700200521000b
:101af4001e00400021c0b30001487800000000002f
:101b04000080fa00000006000e00fa000000eb005e
:101b1400100798006000b80030079800410798004b
:101b2400ea004700000009008018eb008058eb0031
:101b34000040eb004047980021010700404f980007
:101b44001f010700304f98001d010700204f980027
:101b54000000eb00000f78001700370015eea80016
:101b64000000eb0010079800030037001e009000ef
:101b74000000e800100798009e0090001003200069
:101b8400808f5000f9ff360015eea9000000eb002d
:101b940010079800030037001e0090000000e800c2
:101ba400100798009e00900010032000808f5000c2
:101bb400f9ff36001e0fe80052d0bf000080fb0082
:101bc4009e0f5000e5ff3e004e4890000004e000e8
:101bd40003003d0000c0eb004047980002003700be
:101be4000040eb00404798004e4090000080fb000e
:101bf4008000eb00c801dd00020020004e48900088
:101c04000080fb008000eb00c000dd00000020002d
:101c140000017100818171003e4890000082fb0048
:101c24008002eb004828dd00c820de00810070003f
:101c34004820dd0000017100818171002e48900070
:101c44000080fb008000eb000000710081807100c7
:101c540030079800410798003e009000ce009000a5
:101c64000080fa00000006000e00fa000000eb00fd
:101c7400100798006000b8003007980041079800ea
:101c8400ea004700000009008018eb008058eb00d0
:101c94000040eb0040479800fa000700404f9800ce
:101ca400f8000700304f9800f6000700204f980016
:101cb4000000eb00000f78001700370015aea800f5
:101cc4000000eb0010079800030037001e0090008e
:101cd4000000e800100798009e0090001003200008
:101ce400808f5000f9ff360015aea9000000eb000c
:101cf40010079800030037001e0090000000e80061
:101d0400100798009e00900010032000808f500060
:101d1400f9ff36001e0fe80053d0bf000080fb001f
:101d24009e0f5000e5ff3e004e4890000004e00086
:101d340003003d0000c0eb0040479800020037005c
:101d44000040eb00404798004e4090000080fb00ac
:101d54008000eb00c801dd00020020004e48900026
:101d64000080fb008000eb00c000dd0000002000cc
:101d740000017100818171003e4890000082fb00e7
:101d84008002eb004828dd00c820de0081007000de
:101d94004820dd0000017100818171002e4890000f
:101da4000080fb008000eb00000071008180710066
:101db40030079800410798003e009000ce00900044
:101dc4000080fa00000006000200fa00000f78000c
:101dd4001e0078000000e0000b003a004aff0700f4
:101de4000001be00010021001e0078004200dd0059
:101df4000080400090009000100078000000510026
:101e0400818059000f0037001e007800e10f500058
:101e14000b003a0094ff07000001be0001002100fe
:101e24001e0078004200dd00008040009000900019
:101e34001000780000005100818059000100370033
:101e44006000b8000080fa00000006000200fa00fa
:101e5400000f78001e007800dbff07000002be00c0
:101e6400410521001e0078004200dd000080400092
:101e740090009000100078000001be000400be0035
:101e84007ffa07000080fa00000006000400fa0050
:101e9400000f7800214798002e4090008080fb00be
:101ea4001e00780000014000c00021000000410035
:101eb400010878001e007800800040000001210025
:101ec400008040008000eb000108780041012100ff
:101ed4001e0078004200dd00008140006000b80070
:101ee4000089be001e0078008000400080002100b0
:101ef4000080400011002000010878000080fa00f2
:101f0400000006000600fa00000f7800120798008f
:101f1400230798001e009000ae00900067fa0700a7
:101f2400430521001e0178004211dd0002814100b9
:101f34000089be000080fa00000006000200fa00da
:101f4400000f7800410521001e0078004200dd00ea
:101f54000080400090009000100078000080fa009b
:101f6400000006000600fa00000f7800120798002f
:101f740023079800010021001e0078004200dd00c4
:101f8400008040001e019000ae0190000288be0057
:101f94000080fa00000006000200fa00000f78003a
:101fa400010021001e0078004200dd000080400096
:101fb40090009000100078000080fa0000000600f5
:101fc4000400fa000040eb00004f78000040eb00f2
:101fd400104798002500370015eea8000000eb001c
:101fe40010079800030037001e0090000000e8006e
:101ff400100798009e00900010032000808f50006e
:10200400f9ff3600907080004e00de0061406000f1
:102014008080fb001e4090000080fb0067001000e1
:102024000008dd00804078001e40780000c0700089
:10203400004f780015eea9000000eb00100798008f
:10204400030037001e0090000000e800100798000d
:102054009e00900010032000808f5000f9ff36008e
:102064001e4090000040e800104798001e40900079
:10207400e74f5000d8ff36001e4078000080fa0079
:10208400000006000400fa000040eb00004f780056
:102094000040eb00104798002500370015aea8005b
:1020a4000000eb0010079800030037001e009000aa
:1020b4000000e800100798009e0090001003200024
:1020c400808f5000f9ff3600907080004c00de00d5
:1020d400614060008080fb001e4090000080fb0097
:1020e400670010000008dd00804078001e40780082
:1020f40000c07000004f780015aea9000000eb008e
:1021040010079800030037001e0090000000e8004c
:10211400100798009e00900010032000808f50004c
:10212400f9ff36001e4090000040e8001047980078
:102134001e409000e74f5000d8ff36001e40780044
:102144000080fa00000006000000fa00113a800046
:10215400f08f2f00808060000030200001007000ac
:10216400103a8800313a800000e02f0000806000bf
:102174002001b300303a8800213a8000f0f32f00a8
:1021840000806000203a8800213a800000fe2f0081
:10219400008060000000a000203a880040a7a90049
:1021a40000000000113a800000022000008060005e
:1021b4000000e000fbff32000080fa00000006008f
:1021c4000800fa00e0ff07006000b800008fbe00be
:1021d400050037001e0078009e009000610040005a
:1021e400e0804800008fbe001e0178009e01900030
:1021f400f07b220091002000800f5100818f590054
:10220400f4ff3400007c2200910020002007980095
:1022140031079800000000002e009000be009000de
:102224000081700002f0a7000201ea000201ea0046
:102234004f11de000241780061005000e080580038
:1022440020079800310798000204e000f2ff3a00ea
:10225400bdff07001e2eef00f07080007070880034
:10226400dff907006bfa07000f00070037000700cb
:10227400ffff37000800fa008081800000407800ea
:10228400004f78009081800000407800104798004b
:102294000e01780021c0b30000412000b6fc070005
:1022a4000080fa00000006000000fa000421a900e2
:1022b40004c1a90021088000f0fc2f000080600008
:1022c4000040a000200888000021ef0070382100a1
:1022d4001008880001428000f0ff280000806000a0
:1022e40000e0a000004288000068a9002068a8005f
:0c22f40005e1a8000080fa0000000600d0
:020000040000fa
:1023000000110000000100008000000030100000fb
:1023100022000000800000005c10000002000000ad
:1023200080000000521000000a000000820000003f
:102330000101010000000000010000000000000099
:1023400000100000300000008000000000000000cd
:020000040000fa
:102350000000fa00008ea800006ea900000ea9007f
:10236000002ea900114ea800116ea800118ea90020
:0c23700011aea9000080fa000000060079
:020000040000fa
:04afe000ceff0000a0
:020000040000fa
:04afe400ffff00006b
:020000040000fa
:04afe8007fff0000e7
:020000040000fa
:04afec0058ff00000a
:020000040000fa
:04aff0007bff0000e3
:00000001FF
